{
	"contracts/QRNG.sol": {
		"randomNumberGenerator": {
			"abi": [
				{
					"inputs": [
						{
							"internalType": "address",
							"name": "_airnodeRrp",
							"type": "address"
						}
					],
					"stateMutability": "nonpayable",
					"type": "constructor"
				},
				{
					"anonymous": false,
					"inputs": [
						{
							"indexed": true,
							"internalType": "bytes32",
							"name": "requestId",
							"type": "bytes32"
						},
						{
							"indexed": false,
							"internalType": "uint256",
							"name": "response",
							"type": "uint256"
						}
					],
					"name": "ReceivedUint256",
					"type": "event"
				},
				{
					"anonymous": false,
					"inputs": [
						{
							"indexed": true,
							"internalType": "bytes32",
							"name": "requestId",
							"type": "bytes32"
						}
					],
					"name": "RequestUint256",
					"type": "event"
				},
				{
					"inputs": [],
					"name": "airnode",
					"outputs": [
						{
							"internalType": "address",
							"name": "",
							"type": "address"
						}
					],
					"stateMutability": "view",
					"type": "function"
				},
				{
					"inputs": [],
					"name": "airnodeRrp",
					"outputs": [
						{
							"internalType": "contract IAirnodeRrpV0",
							"name": "",
							"type": "address"
						}
					],
					"stateMutability": "view",
					"type": "function"
				},
				{
					"inputs": [],
					"name": "endpointIdUint256",
					"outputs": [
						{
							"internalType": "bytes32",
							"name": "",
							"type": "bytes32"
						}
					],
					"stateMutability": "view",
					"type": "function"
				},
				{
					"inputs": [],
					"name": "endpointIdUint256Array",
					"outputs": [
						{
							"internalType": "bytes32",
							"name": "",
							"type": "bytes32"
						}
					],
					"stateMutability": "view",
					"type": "function"
				},
				{
					"inputs": [
						{
							"internalType": "bytes32",
							"name": "",
							"type": "bytes32"
						}
					],
					"name": "expectingRequestWithIdToBeFulfilled",
					"outputs": [
						{
							"internalType": "bool",
							"name": "",
							"type": "bool"
						}
					],
					"stateMutability": "view",
					"type": "function"
				},
				{
					"inputs": [
						{
							"internalType": "bytes32",
							"name": "requestId",
							"type": "bytes32"
						},
						{
							"internalType": "bytes",
							"name": "data",
							"type": "bytes"
						}
					],
					"name": "fulfillUint256",
					"outputs": [],
					"stateMutability": "nonpayable",
					"type": "function"
				},
				{
					"inputs": [],
					"name": "makeRequestUint256",
					"outputs": [],
					"stateMutability": "nonpayable",
					"type": "function"
				},
				{
					"inputs": [],
					"name": "qrngUint256",
					"outputs": [
						{
							"internalType": "uint256",
							"name": "",
							"type": "uint256"
						}
					],
					"stateMutability": "view",
					"type": "function"
				},
				{
					"inputs": [
						{
							"internalType": "address",
							"name": "_airnode",
							"type": "address"
						},
						{
							"internalType": "bytes32",
							"name": "_endpointIdUint256",
							"type": "bytes32"
						},
						{
							"internalType": "bytes32",
							"name": "_endpointIdUint256Array",
							"type": "bytes32"
						},
						{
							"internalType": "address",
							"name": "_sponsorWallet",
							"type": "address"
						}
					],
					"name": "setRequestParameters",
					"outputs": [],
					"stateMutability": "nonpayable",
					"type": "function"
				},
				{
					"inputs": [],
					"name": "sponsorWallet",
					"outputs": [
						{
							"internalType": "address",
							"name": "",
							"type": "address"
						}
					],
					"stateMutability": "view",
					"type": "function"
				}
			],
			"devdoc": {
				"kind": "dev",
				"methods": {},
				"version": 1
			},
			"evm": {
				"assembly": "    /* \"contracts/QRNG.sol\":136:1758  contract randomNumberGenerator is RrpRequesterV0{... */\n  mstore(0x40, 0xa0)\n    /* \"contracts/QRNG.sol\":570:638  constructor(address _airnodeRrp) RrpRequesterV0(_airnodeRrp){... */\n  callvalue\n  dup1\n  iszero\n  tag_1\n  jumpi\n  0x00\n  dup1\n  revert\ntag_1:\n  pop\n  mload(0x40)\n  sub(codesize, bytecodeSize)\n  dup1\n  bytecodeSize\n  dup4\n  codecopy\n  dup2\n  dup2\n  add\n  0x40\n  mstore\n  dup2\n  add\n  swap1\n  tag_2\n  swap2\n  swap1\n  tag_3\n  jump\t// in\ntag_2:\n    /* \"contracts/QRNG.sol\":618:629  _airnodeRrp */\n  dup1\n    /* \"@api3/airnode-protocol/contracts/rrp/requesters/RrpRequesterV0.sol\":964:975  _airnodeRrp */\n  dup1\n    /* \"@api3/airnode-protocol/contracts/rrp/requesters/RrpRequesterV0.sol\":937:976  airnodeRrp = IAirnodeRrpV0(_airnodeRrp) */\n  0xffffffffffffffffffffffffffffffffffffffff\n  and\n  0x80\n  dup2\n  0xffffffffffffffffffffffffffffffffffffffff\n  and\n  dup2\n  mstore\n  pop\n  pop\n    /* \"@api3/airnode-protocol/contracts/rrp/requesters/RrpRequesterV0.sol\":1000:1011  _airnodeRrp */\n  dup1\n    /* \"@api3/airnode-protocol/contracts/rrp/requesters/RrpRequesterV0.sol\":986:1033  IAirnodeRrpV0(_airnodeRrp).setSponsorshipStatus */\n  0xffffffffffffffffffffffffffffffffffffffff\n  and\n  0xaddf027c\n    /* \"@api3/airnode-protocol/contracts/rrp/requesters/RrpRequesterV0.sol\":1042:1046  this */\n  address\n    /* \"@api3/airnode-protocol/contracts/rrp/requesters/RrpRequesterV0.sol\":1049:1053  true */\n  0x01\n    /* \"@api3/airnode-protocol/contracts/rrp/requesters/RrpRequesterV0.sol\":986:1054  IAirnodeRrpV0(_airnodeRrp).setSponsorshipStatus(address(this), true) */\n  mload(0x40)\n  dup4\n  0xffffffff\n  and\n  0xe0\n  shl\n  dup2\n  mstore\n  0x04\n  add\n  tag_7\n  swap3\n  swap2\n  swap1\n  tag_8\n  jump\t// in\ntag_7:\n  0x00\n  mload(0x40)\n  dup1\n  dup4\n  sub\n  dup2\n  0x00\n  dup8\n  dup1\n  extcodesize\n  iszero\n  dup1\n  iszero\n  tag_9\n  jumpi\n  0x00\n  dup1\n  revert\ntag_9:\n  pop\n  gas\n  call\n  iszero\n  dup1\n  iszero\n  tag_11\n  jumpi\n  returndatasize\n  0x00\n  dup1\n  returndatacopy\n  revert(0x00, returndatasize)\ntag_11:\n  pop\n  pop\n  pop\n  pop\n    /* \"@api3/airnode-protocol/contracts/rrp/requesters/RrpRequesterV0.sol\":894:1061  constructor(address _airnodeRrp) {... */\n  pop\n    /* \"contracts/QRNG.sol\":570:638  constructor(address _airnodeRrp) RrpRequesterV0(_airnodeRrp){... */\n  pop\n    /* \"contracts/QRNG.sol\":136:1758  contract randomNumberGenerator is RrpRequesterV0{... */\n  jump(tag_13)\n    /* \"#utility.yul\":88:205   */\ntag_15:\n    /* \"#utility.yul\":197:198   */\n  0x00\n    /* \"#utility.yul\":194:195   */\n  dup1\n    /* \"#utility.yul\":187:199   */\n  revert\n    /* \"#utility.yul\":334:460   */\ntag_17:\n    /* \"#utility.yul\":371:378   */\n  0x00\n    /* \"#utility.yul\":411:453   */\n  0xffffffffffffffffffffffffffffffffffffffff\n    /* \"#utility.yul\":404:409   */\n  dup3\n    /* \"#utility.yul\":400:454   */\n  and\n    /* \"#utility.yul\":389:454   */\n  swap1\n  pop\n    /* \"#utility.yul\":334:460   */\n  swap2\n  swap1\n  pop\n  jump\t// out\n    /* \"#utility.yul\":466:562   */\ntag_18:\n    /* \"#utility.yul\":503:510   */\n  0x00\n    /* \"#utility.yul\":532:556   */\n  tag_30\n    /* \"#utility.yul\":550:555   */\n  dup3\n    /* \"#utility.yul\":532:556   */\n  tag_17\n  jump\t// in\ntag_30:\n    /* \"#utility.yul\":521:556   */\n  swap1\n  pop\n    /* \"#utility.yul\":466:562   */\n  swap2\n  swap1\n  pop\n  jump\t// out\n    /* \"#utility.yul\":568:690   */\ntag_19:\n    /* \"#utility.yul\":641:665   */\n  tag_32\n    /* \"#utility.yul\":659:664   */\n  dup2\n    /* \"#utility.yul\":641:665   */\n  tag_18\n  jump\t// in\ntag_32:\n    /* \"#utility.yul\":634:639   */\n  dup2\n    /* \"#utility.yul\":631:666   */\n  eq\n    /* \"#utility.yul\":621:684   */\n  tag_33\n  jumpi\n    /* \"#utility.yul\":680:681   */\n  0x00\n    /* \"#utility.yul\":677:678   */\n  dup1\n    /* \"#utility.yul\":670:682   */\n  revert\n    /* \"#utility.yul\":621:684   */\ntag_33:\n    /* \"#utility.yul\":568:690   */\n  pop\n  jump\t// out\n    /* \"#utility.yul\":696:839   */\ntag_20:\n    /* \"#utility.yul\":753:758   */\n  0x00\n    /* \"#utility.yul\":784:790   */\n  dup2\n    /* \"#utility.yul\":778:791   */\n  mload\n    /* \"#utility.yul\":769:791   */\n  swap1\n  pop\n    /* \"#utility.yul\":800:833   */\n  tag_35\n    /* \"#utility.yul\":827:832   */\n  dup2\n    /* \"#utility.yul\":800:833   */\n  tag_19\n  jump\t// in\ntag_35:\n    /* \"#utility.yul\":696:839   */\n  swap3\n  swap2\n  pop\n  pop\n  jump\t// out\n    /* \"#utility.yul\":845:1196   */\ntag_3:\n    /* \"#utility.yul\":915:921   */\n  0x00\n    /* \"#utility.yul\":964:966   */\n  0x20\n    /* \"#utility.yul\":952:961   */\n  dup3\n    /* \"#utility.yul\":943:950   */\n  dup5\n    /* \"#utility.yul\":939:962   */\n  sub\n    /* \"#utility.yul\":935:967   */\n  slt\n    /* \"#utility.yul\":932:1051   */\n  iszero\n  tag_37\n  jumpi\n    /* \"#utility.yul\":970:1049   */\n  tag_38\n  tag_15\n  jump\t// in\ntag_38:\n    /* \"#utility.yul\":932:1051   */\ntag_37:\n    /* \"#utility.yul\":1090:1091   */\n  0x00\n    /* \"#utility.yul\":1115:1179   */\n  tag_39\n    /* \"#utility.yul\":1171:1178   */\n  dup5\n    /* \"#utility.yul\":1162:1168   */\n  dup3\n    /* \"#utility.yul\":1151:1160   */\n  dup6\n    /* \"#utility.yul\":1147:1169   */\n  add\n    /* \"#utility.yul\":1115:1179   */\n  tag_20\n  jump\t// in\ntag_39:\n    /* \"#utility.yul\":1105:1179   */\n  swap2\n  pop\n    /* \"#utility.yul\":1061:1189   */\n  pop\n    /* \"#utility.yul\":845:1196   */\n  swap3\n  swap2\n  pop\n  pop\n  jump\t// out\n    /* \"#utility.yul\":1202:1320   */\ntag_21:\n    /* \"#utility.yul\":1289:1313   */\n  tag_41\n    /* \"#utility.yul\":1307:1312   */\n  dup2\n    /* \"#utility.yul\":1289:1313   */\n  tag_18\n  jump\t// in\ntag_41:\n    /* \"#utility.yul\":1284:1287   */\n  dup3\n    /* \"#utility.yul\":1277:1314   */\n  mstore\n    /* \"#utility.yul\":1202:1320   */\n  pop\n  pop\n  jump\t// out\n    /* \"#utility.yul\":1326:1416   */\ntag_22:\n    /* \"#utility.yul\":1360:1367   */\n  0x00\n    /* \"#utility.yul\":1403:1408   */\n  dup2\n    /* \"#utility.yul\":1396:1409   */\n  iszero\n    /* \"#utility.yul\":1389:1410   */\n  iszero\n    /* \"#utility.yul\":1378:1410   */\n  swap1\n  pop\n    /* \"#utility.yul\":1326:1416   */\n  swap2\n  swap1\n  pop\n  jump\t// out\n    /* \"#utility.yul\":1422:1531   */\ntag_23:\n    /* \"#utility.yul\":1503:1524   */\n  tag_44\n    /* \"#utility.yul\":1518:1523   */\n  dup2\n    /* \"#utility.yul\":1503:1524   */\n  tag_22\n  jump\t// in\ntag_44:\n    /* \"#utility.yul\":1498:1501   */\n  dup3\n    /* \"#utility.yul\":1491:1525   */\n  mstore\n    /* \"#utility.yul\":1422:1531   */\n  pop\n  pop\n  jump\t// out\n    /* \"#utility.yul\":1537:1857   */\ntag_8:\n    /* \"#utility.yul\":1652:1656   */\n  0x00\n    /* \"#utility.yul\":1690:1692   */\n  0x40\n    /* \"#utility.yul\":1679:1688   */\n  dup3\n    /* \"#utility.yul\":1675:1693   */\n  add\n    /* \"#utility.yul\":1667:1693   */\n  swap1\n  pop\n    /* \"#utility.yul\":1703:1774   */\n  tag_46\n    /* \"#utility.yul\":1771:1772   */\n  0x00\n    /* \"#utility.yul\":1760:1769   */\n  dup4\n    /* \"#utility.yul\":1756:1773   */\n  add\n    /* \"#utility.yul\":1747:1753   */\n  dup6\n    /* \"#utility.yul\":1703:1774   */\n  tag_21\n  jump\t// in\ntag_46:\n    /* \"#utility.yul\":1784:1850   */\n  tag_47\n    /* \"#utility.yul\":1846:1848   */\n  0x20\n    /* \"#utility.yul\":1835:1844   */\n  dup4\n    /* \"#utility.yul\":1831:1849   */\n  add\n    /* \"#utility.yul\":1822:1828   */\n  dup5\n    /* \"#utility.yul\":1784:1850   */\n  tag_23\n  jump\t// in\ntag_47:\n    /* \"#utility.yul\":1537:1857   */\n  swap4\n  swap3\n  pop\n  pop\n  pop\n  jump\t// out\n    /* \"contracts/QRNG.sol\":136:1758  contract randomNumberGenerator is RrpRequesterV0{... */\ntag_13:\n  mload(0x80)\n  codecopy(0x00, dataOffset(sub_0), dataSize(sub_0))\n  0x00\n  assignImmutable(\"0xb54132232922229e38cc95c863488521e95e5e7a61a99a0c1f7114e9af332ed3\")\n  return(0x00, dataSize(sub_0))\nstop\n\nsub_0: assembly {\n        /* \"contracts/QRNG.sol\":136:1758  contract randomNumberGenerator is RrpRequesterV0{... */\n      mstore(0x40, 0x80)\n      callvalue\n      dup1\n      iszero\n      tag_1\n      jumpi\n      0x00\n      dup1\n      revert\n    tag_1:\n      pop\n      jumpi(tag_2, lt(calldatasize, 0x04))\n      shr(0xe0, calldataload(0x00))\n      dup1\n      0xa19954af\n      gt\n      tag_13\n      jumpi\n      dup1\n      0xa19954af\n      eq\n      tag_8\n      jumpi\n      dup1\n      0xa36ff4d8\n      eq\n      tag_9\n      jumpi\n      dup1\n      0xbf90fb4e\n      eq\n      tag_10\n      jumpi\n      dup1\n      0xce26da8b\n      eq\n      tag_11\n      jumpi\n      dup1\n      0xdea12bad\n      eq\n      tag_12\n      jumpi\n      jump(tag_2)\n    tag_13:\n      dup1\n      0x07b9fc57\n      eq\n      tag_3\n      jumpi\n      dup1\n      0x3718d90a\n      eq\n      tag_4\n      jumpi\n      dup1\n      0x5675e4e4\n      eq\n      tag_5\n      jumpi\n      dup1\n      0x71bab666\n      eq\n      tag_6\n      jumpi\n      dup1\n      0x851244f7\n      eq\n      tag_7\n      jumpi\n    tag_2:\n      0x00\n      dup1\n      revert\n        /* \"contracts/QRNG.sol\":219:251  bytes32 public endpointIdUint256 */\n    tag_3:\n      tag_14\n      tag_15\n      jump\t// in\n    tag_14:\n      mload(0x40)\n      tag_16\n      swap2\n      swap1\n      tag_17\n      jump\t// in\n    tag_16:\n      mload(0x40)\n      dup1\n      swap2\n      sub\n      swap1\n      return\n        /* \"contracts/QRNG.sol\":1403:1755  function fulfillUint256(bytes32 requestId, bytes calldata data) external onlyAirnodeRrp {... */\n    tag_4:\n      tag_18\n      0x04\n      dup1\n      calldatasize\n      sub\n      dup2\n      add\n      swap1\n      tag_19\n      swap2\n      swap1\n      tag_20\n      jump\t// in\n    tag_19:\n      tag_21\n      jump\t// in\n    tag_18:\n      stop\n        /* \"contracts/QRNG.sol\":644:983  function setRequestParameters(address _airnode,... */\n    tag_5:\n      tag_22\n      0x04\n      dup1\n      calldatasize\n      sub\n      dup2\n      add\n      swap1\n      tag_23\n      swap2\n      swap1\n      tag_24\n      jump\t// in\n    tag_23:\n      tag_25\n      jump\t// in\n    tag_22:\n      stop\n        /* \"@api3/airnode-protocol/contracts/rrp/requesters/RrpRequesterV0.sol\":199:240  IAirnodeRrpV0 public immutable airnodeRrp */\n    tag_6:\n      tag_26\n      tag_27\n      jump\t// in\n    tag_26:\n      mload(0x40)\n      tag_28\n      swap2\n      swap1\n      tag_29\n      jump\t// in\n    tag_28:\n      mload(0x40)\n      dup1\n      swap2\n      sub\n      swap1\n      return\n        /* \"contracts/QRNG.sol\":368:437  mapping (bytes32 => bool) public  expectingRequestWithIdToBeFulfilled */\n    tag_7:\n      tag_30\n      0x04\n      dup1\n      calldatasize\n      sub\n      dup2\n      add\n      swap1\n      tag_31\n      swap2\n      swap1\n      tag_32\n      jump\t// in\n    tag_31:\n      tag_33\n      jump\t// in\n    tag_30:\n      mload(0x40)\n      tag_34\n      swap2\n      swap1\n      tag_35\n      jump\t// in\n    tag_34:\n      mload(0x40)\n      dup1\n      swap2\n      sub\n      swap1\n      return\n        /* \"contracts/QRNG.sol\":257:294  bytes32 public endpointIdUint256Array */\n    tag_8:\n      tag_36\n      tag_37\n      jump\t// in\n    tag_36:\n      mload(0x40)\n      tag_38\n      swap2\n      swap1\n      tag_17\n      jump\t// in\n    tag_38:\n      mload(0x40)\n      dup1\n      swap2\n      sub\n      swap1\n      return\n        /* \"contracts/QRNG.sol\":191:213  address public airnode */\n    tag_9:\n      tag_39\n      tag_40\n      jump\t// in\n    tag_39:\n      mload(0x40)\n      tag_41\n      swap2\n      swap1\n      tag_42\n      jump\t// in\n    tag_41:\n      mload(0x40)\n      dup1\n      swap2\n      sub\n      swap1\n      return\n        /* \"contracts/QRNG.sol\":300:328  address public sponsorWallet */\n    tag_10:\n      tag_43\n      tag_44\n      jump\t// in\n    tag_43:\n      mload(0x40)\n      tag_45\n      swap2\n      swap1\n      tag_42\n      jump\t// in\n    tag_45:\n      mload(0x40)\n      dup1\n      swap2\n      sub\n      swap1\n      return\n        /* \"contracts/QRNG.sol\":335:361  uint256 public qrngUint256 */\n    tag_11:\n      tag_46\n      tag_47\n      jump\t// in\n    tag_46:\n      mload(0x40)\n      tag_48\n      swap2\n      swap1\n      tag_49\n      jump\t// in\n    tag_48:\n      mload(0x40)\n      dup1\n      swap2\n      sub\n      swap1\n      return\n        /* \"contracts/QRNG.sol\":989:1396  function makeRequestUint256() external {... */\n    tag_12:\n      tag_50\n      tag_51\n      jump\t// in\n    tag_50:\n      stop\n        /* \"contracts/QRNG.sol\":219:251  bytes32 public endpointIdUint256 */\n    tag_15:\n      sload(0x01)\n      dup2\n      jump\t// out\n        /* \"contracts/QRNG.sol\":1403:1755  function fulfillUint256(bytes32 requestId, bytes calldata data) external onlyAirnodeRrp {... */\n    tag_21:\n        /* \"@api3/airnode-protocol/contracts/rrp/requesters/RrpRequesterV0.sol\":486:496  airnodeRrp */\n      immutable(\"0xb54132232922229e38cc95c863488521e95e5e7a61a99a0c1f7114e9af332ed3\")\n        /* \"@api3/airnode-protocol/contracts/rrp/requesters/RrpRequesterV0.sol\":464:497  msg.sender == address(airnodeRrp) */\n      0xffffffffffffffffffffffffffffffffffffffff\n      and\n        /* \"@api3/airnode-protocol/contracts/rrp/requesters/RrpRequesterV0.sol\":464:474  msg.sender */\n      caller\n        /* \"@api3/airnode-protocol/contracts/rrp/requesters/RrpRequesterV0.sol\":464:497  msg.sender == address(airnodeRrp) */\n      0xffffffffffffffffffffffffffffffffffffffff\n      and\n      eq\n        /* \"@api3/airnode-protocol/contracts/rrp/requesters/RrpRequesterV0.sol\":456:524  require(msg.sender == address(airnodeRrp), \"Caller not Airnode RRP\") */\n      tag_53\n      jumpi\n      mload(0x40)\n      0x08c379a000000000000000000000000000000000000000000000000000000000\n      dup2\n      mstore\n      0x04\n      add\n      tag_54\n      swap1\n      tag_55\n      jump\t// in\n    tag_54:\n      mload(0x40)\n      dup1\n      swap2\n      sub\n      swap1\n      revert\n    tag_53:\n        /* \"contracts/QRNG.sol\":1509:1544  expectingRequestWithIdToBeFulfilled */\n      0x05\n        /* \"contracts/QRNG.sol\":1509:1555  expectingRequestWithIdToBeFulfilled[requestId] */\n      0x00\n        /* \"contracts/QRNG.sol\":1545:1554  requestId */\n      dup5\n        /* \"contracts/QRNG.sol\":1509:1555  expectingRequestWithIdToBeFulfilled[requestId] */\n      dup2\n      mstore\n      0x20\n      add\n      swap1\n      dup2\n      mstore\n      0x20\n      add\n      0x00\n      keccak256\n      0x00\n      swap1\n      sload\n      swap1\n      0x0100\n      exp\n      swap1\n      div\n      0xff\n      and\n        /* \"contracts/QRNG.sol\":1501:1578  require(expectingRequestWithIdToBeFulfilled[requestId], \"Request id unknown\") */\n      tag_57\n      jumpi\n      mload(0x40)\n      0x08c379a000000000000000000000000000000000000000000000000000000000\n      dup2\n      mstore\n      0x04\n      add\n      tag_58\n      swap1\n      tag_59\n      jump\t// in\n    tag_58:\n      mload(0x40)\n      dup1\n      swap2\n      sub\n      swap1\n      revert\n    tag_57:\n        /* \"contracts/QRNG.sol\":1637:1642  false */\n      0x00\n        /* \"contracts/QRNG.sol\":1588:1623  expectingRequestWithIdToBeFulfilled */\n      0x05\n        /* \"contracts/QRNG.sol\":1588:1634  expectingRequestWithIdToBeFulfilled[requestId] */\n      0x00\n        /* \"contracts/QRNG.sol\":1624:1633  requestId */\n      dup6\n        /* \"contracts/QRNG.sol\":1588:1634  expectingRequestWithIdToBeFulfilled[requestId] */\n      dup2\n      mstore\n      0x20\n      add\n      swap1\n      dup2\n      mstore\n      0x20\n      add\n      0x00\n      keccak256\n      0x00\n        /* \"contracts/QRNG.sol\":1588:1642  expectingRequestWithIdToBeFulfilled[requestId] = false */\n      0x0100\n      exp\n      dup2\n      sload\n      dup2\n      0xff\n      mul\n      not\n      and\n      swap1\n      dup4\n      iszero\n      iszero\n      mul\n      or\n      swap1\n      sstore\n      pop\n        /* \"contracts/QRNG.sol\":1677:1681  data */\n      dup2\n      dup2\n        /* \"contracts/QRNG.sol\":1666:1693  abi.decode(data, (uint256)) */\n      dup2\n      add\n      swap1\n      tag_60\n      swap2\n      swap1\n      tag_61\n      jump\t// in\n    tag_60:\n        /* \"contracts/QRNG.sol\":1652:1663  qrngUint256 */\n      0x04\n        /* \"contracts/QRNG.sol\":1652:1693  qrngUint256 = abi.decode(data, (uint256)) */\n      dup2\n      swap1\n      sstore\n      pop\n        /* \"contracts/QRNG.sol\":1725:1734  requestId */\n      dup3\n        /* \"contracts/QRNG.sol\":1709:1748  ReceivedUint256(requestId, qrngUint256) */\n      0x1ca47bacd454c26163f84eff4aa514e291ba9fa67ad6029e39567c122bbed30f\n        /* \"contracts/QRNG.sol\":1736:1747  qrngUint256 */\n      sload(0x04)\n        /* \"contracts/QRNG.sol\":1709:1748  ReceivedUint256(requestId, qrngUint256) */\n      mload(0x40)\n      tag_62\n      swap2\n      swap1\n      tag_49\n      jump\t// in\n    tag_62:\n      mload(0x40)\n      dup1\n      swap2\n      sub\n      swap1\n      log2\n        /* \"contracts/QRNG.sol\":1403:1755  function fulfillUint256(bytes32 requestId, bytes calldata data) external onlyAirnodeRrp {... */\n      pop\n      pop\n      pop\n      jump\t// out\n        /* \"contracts/QRNG.sol\":644:983  function setRequestParameters(address _airnode,... */\n    tag_25:\n        /* \"contracts/QRNG.sol\":822:830  _airnode */\n      dup4\n        /* \"contracts/QRNG.sol\":812:819  airnode */\n      0x00\n      dup1\n        /* \"contracts/QRNG.sol\":812:830  airnode = _airnode */\n      0x0100\n      exp\n      dup2\n      sload\n      dup2\n      0xffffffffffffffffffffffffffffffffffffffff\n      mul\n      not\n      and\n      swap1\n      dup4\n      0xffffffffffffffffffffffffffffffffffffffff\n      and\n      mul\n      or\n      swap1\n      sstore\n      pop\n        /* \"contracts/QRNG.sol\":860:878  _endpointIdUint256 */\n      dup3\n        /* \"contracts/QRNG.sol\":840:857  endpointIdUint256 */\n      0x01\n        /* \"contracts/QRNG.sol\":840:878  endpointIdUint256 = _endpointIdUint256 */\n      dup2\n      swap1\n      sstore\n      pop\n        /* \"contracts/QRNG.sol\":913:936  _endpointIdUint256Array */\n      dup2\n        /* \"contracts/QRNG.sol\":888:910  endpointIdUint256Array */\n      0x02\n        /* \"contracts/QRNG.sol\":888:936  endpointIdUint256Array = _endpointIdUint256Array */\n      dup2\n      swap1\n      sstore\n      pop\n        /* \"contracts/QRNG.sol\":962:976  _sponsorWallet */\n      dup1\n        /* \"contracts/QRNG.sol\":946:959  sponsorWallet */\n      0x03\n      0x00\n        /* \"contracts/QRNG.sol\":946:976  sponsorWallet = _sponsorWallet */\n      0x0100\n      exp\n      dup2\n      sload\n      dup2\n      0xffffffffffffffffffffffffffffffffffffffff\n      mul\n      not\n      and\n      swap1\n      dup4\n      0xffffffffffffffffffffffffffffffffffffffff\n      and\n      mul\n      or\n      swap1\n      sstore\n      pop\n        /* \"contracts/QRNG.sol\":644:983  function setRequestParameters(address _airnode,... */\n      pop\n      pop\n      pop\n      pop\n      jump\t// out\n        /* \"@api3/airnode-protocol/contracts/rrp/requesters/RrpRequesterV0.sol\":199:240  IAirnodeRrpV0 public immutable airnodeRrp */\n    tag_27:\n      immutable(\"0xb54132232922229e38cc95c863488521e95e5e7a61a99a0c1f7114e9af332ed3\")\n      dup2\n      jump\t// out\n        /* \"contracts/QRNG.sol\":368:437  mapping (bytes32 => bool) public  expectingRequestWithIdToBeFulfilled */\n    tag_33:\n      mstore(0x20, 0x05)\n      dup1\n      0x00\n      mstore\n      keccak256(0x00, 0x40)\n      0x00\n      swap2\n      pop\n      sload\n      swap1\n      0x0100\n      exp\n      swap1\n      div\n      0xff\n      and\n      dup2\n      jump\t// out\n        /* \"contracts/QRNG.sol\":257:294  bytes32 public endpointIdUint256Array */\n    tag_37:\n      sload(0x02)\n      dup2\n      jump\t// out\n        /* \"contracts/QRNG.sol\":191:213  address public airnode */\n    tag_40:\n      0x00\n      dup1\n      sload\n      swap1\n      0x0100\n      exp\n      swap1\n      div\n      0xffffffffffffffffffffffffffffffffffffffff\n      and\n      dup2\n      jump\t// out\n        /* \"contracts/QRNG.sol\":300:328  address public sponsorWallet */\n    tag_44:\n      0x03\n      0x00\n      swap1\n      sload\n      swap1\n      0x0100\n      exp\n      swap1\n      div\n      0xffffffffffffffffffffffffffffffffffffffff\n      and\n      dup2\n      jump\t// out\n        /* \"contracts/QRNG.sol\":335:361  uint256 public qrngUint256 */\n    tag_47:\n      sload(0x04)\n      dup2\n      jump\t// out\n        /* \"contracts/QRNG.sol\":989:1396  function makeRequestUint256() external {... */\n    tag_51:\n        /* \"contracts/QRNG.sol\":1038:1055  bytes32 requestId */\n      0x00\n        /* \"contracts/QRNG.sol\":1058:1068  airnodeRrp */\n      immutable(\"0xb54132232922229e38cc95c863488521e95e5e7a61a99a0c1f7114e9af332ed3\")\n        /* \"contracts/QRNG.sol\":1058:1084  airnodeRrp.makeFullRequest */\n      0xffffffffffffffffffffffffffffffffffffffff\n      and\n      0x6e6be03f\n        /* \"contracts/QRNG.sol\":1098:1105  airnode */\n      0x00\n      dup1\n      sload\n      swap1\n      0x0100\n      exp\n      swap1\n      div\n      0xffffffffffffffffffffffffffffffffffffffff\n      and\n        /* \"contracts/QRNG.sol\":1119:1136  endpointIdUint256 */\n      sload(0x01)\n        /* \"contracts/QRNG.sol\":1158:1162  this */\n      address\n        /* \"contracts/QRNG.sol\":1177:1190  sponsorWallet */\n      0x03\n      0x00\n      swap1\n      sload\n      swap1\n      0x0100\n      exp\n      swap1\n      div\n      0xffffffffffffffffffffffffffffffffffffffff\n      and\n        /* \"contracts/QRNG.sol\":1212:1216  this */\n      address\n        /* \"contracts/QRNG.sol\":1231:1259  this.fulfillUint256.selector */\n      shl(0xe0, 0x3718d90a)\n        /* \"contracts/QRNG.sol\":1058:1285  airnodeRrp.makeFullRequest(... */\n      mload(0x40)\n      dup8\n      0xffffffff\n      and\n      0xe0\n      shl\n      dup2\n      mstore\n      0x04\n      add\n      tag_65\n      swap7\n      swap6\n      swap5\n      swap4\n      swap3\n      swap2\n      swap1\n      tag_66\n      jump\t// in\n    tag_65:\n      0x20\n      mload(0x40)\n      dup1\n      dup4\n      sub\n      dup2\n      0x00\n      dup8\n      gas\n      call\n      iszero\n      dup1\n      iszero\n      tag_68\n      jumpi\n      returndatasize\n      0x00\n      dup1\n      returndatacopy\n      revert(0x00, returndatasize)\n    tag_68:\n      pop\n      pop\n      pop\n      pop\n      mload(0x40)\n      returndatasize\n      not(0x1f)\n      0x1f\n      dup3\n      add\n      and\n      dup3\n      add\n      dup1\n      0x40\n      mstore\n      pop\n      dup2\n      add\n      swap1\n      tag_69\n      swap2\n      swap1\n      tag_70\n      jump\t// in\n    tag_69:\n        /* \"contracts/QRNG.sol\":1038:1285  bytes32 requestId = airnodeRrp.makeFullRequest(... */\n      swap1\n      pop\n        /* \"contracts/QRNG.sol\":1345:1349  true */\n      0x01\n        /* \"contracts/QRNG.sol\":1296:1331  expectingRequestWithIdToBeFulfilled */\n      0x05\n        /* \"contracts/QRNG.sol\":1296:1342  expectingRequestWithIdToBeFulfilled[requestId] */\n      0x00\n        /* \"contracts/QRNG.sol\":1332:1341  requestId */\n      dup4\n        /* \"contracts/QRNG.sol\":1296:1342  expectingRequestWithIdToBeFulfilled[requestId] */\n      dup2\n      mstore\n      0x20\n      add\n      swap1\n      dup2\n      mstore\n      0x20\n      add\n      0x00\n      keccak256\n      0x00\n        /* \"contracts/QRNG.sol\":1296:1349  expectingRequestWithIdToBeFulfilled[requestId] = true */\n      0x0100\n      exp\n      dup2\n      sload\n      dup2\n      0xff\n      mul\n      not\n      and\n      swap1\n      dup4\n      iszero\n      iszero\n      mul\n      or\n      swap1\n      sstore\n      pop\n        /* \"contracts/QRNG.sol\":1379:1388  requestId */\n      dup1\n        /* \"contracts/QRNG.sol\":1364:1389  RequestUint256(requestId) */\n      0xf039428b095c79c12e434981caacc36fbc90eede12232a5fdc82b0beeddf3c20\n      mload(0x40)\n      mload(0x40)\n      dup1\n      swap2\n      sub\n      swap1\n      log2\n        /* \"contracts/QRNG.sol\":1028:1396  {... */\n      pop\n        /* \"contracts/QRNG.sol\":989:1396  function makeRequestUint256() external {... */\n      jump\t// out\n        /* \"#utility.yul\":7:84   */\n    tag_71:\n        /* \"#utility.yul\":44:51   */\n      0x00\n        /* \"#utility.yul\":73:78   */\n      dup2\n        /* \"#utility.yul\":62:78   */\n      swap1\n      pop\n        /* \"#utility.yul\":7:84   */\n      swap2\n      swap1\n      pop\n      jump\t// out\n        /* \"#utility.yul\":90:208   */\n    tag_72:\n        /* \"#utility.yul\":177:201   */\n      tag_112\n        /* \"#utility.yul\":195:200   */\n      dup2\n        /* \"#utility.yul\":177:201   */\n      tag_71\n      jump\t// in\n    tag_112:\n        /* \"#utility.yul\":172:175   */\n      dup3\n        /* \"#utility.yul\":165:202   */\n      mstore\n        /* \"#utility.yul\":90:208   */\n      pop\n      pop\n      jump\t// out\n        /* \"#utility.yul\":214:436   */\n    tag_17:\n        /* \"#utility.yul\":307:311   */\n      0x00\n        /* \"#utility.yul\":345:347   */\n      0x20\n        /* \"#utility.yul\":334:343   */\n      dup3\n        /* \"#utility.yul\":330:348   */\n      add\n        /* \"#utility.yul\":322:348   */\n      swap1\n      pop\n        /* \"#utility.yul\":358:429   */\n      tag_114\n        /* \"#utility.yul\":426:427   */\n      0x00\n        /* \"#utility.yul\":415:424   */\n      dup4\n        /* \"#utility.yul\":411:428   */\n      add\n        /* \"#utility.yul\":402:408   */\n      dup5\n        /* \"#utility.yul\":358:429   */\n      tag_72\n      jump\t// in\n    tag_114:\n        /* \"#utility.yul\":214:436   */\n      swap3\n      swap2\n      pop\n      pop\n      jump\t// out\n        /* \"#utility.yul\":523:640   */\n    tag_74:\n        /* \"#utility.yul\":632:633   */\n      0x00\n        /* \"#utility.yul\":629:630   */\n      dup1\n        /* \"#utility.yul\":622:634   */\n      revert\n        /* \"#utility.yul\":646:763   */\n    tag_75:\n        /* \"#utility.yul\":755:756   */\n      0x00\n        /* \"#utility.yul\":752:753   */\n      dup1\n        /* \"#utility.yul\":745:757   */\n      revert\n        /* \"#utility.yul\":769:891   */\n    tag_76:\n        /* \"#utility.yul\":842:866   */\n      tag_119\n        /* \"#utility.yul\":860:865   */\n      dup2\n        /* \"#utility.yul\":842:866   */\n      tag_71\n      jump\t// in\n    tag_119:\n        /* \"#utility.yul\":835:840   */\n      dup2\n        /* \"#utility.yul\":832:867   */\n      eq\n        /* \"#utility.yul\":822:885   */\n      tag_120\n      jumpi\n        /* \"#utility.yul\":881:882   */\n      0x00\n        /* \"#utility.yul\":878:879   */\n      dup1\n        /* \"#utility.yul\":871:883   */\n      revert\n        /* \"#utility.yul\":822:885   */\n    tag_120:\n        /* \"#utility.yul\":769:891   */\n      pop\n      jump\t// out\n        /* \"#utility.yul\":897:1036   */\n    tag_77:\n        /* \"#utility.yul\":943:948   */\n      0x00\n        /* \"#utility.yul\":981:987   */\n      dup2\n        /* \"#utility.yul\":968:988   */\n      calldataload\n        /* \"#utility.yul\":959:988   */\n      swap1\n      pop\n        /* \"#utility.yul\":997:1030   */\n      tag_122\n        /* \"#utility.yul\":1024:1029   */\n      dup2\n        /* \"#utility.yul\":997:1030   */\n      tag_76\n      jump\t// in\n    tag_122:\n        /* \"#utility.yul\":897:1036   */\n      swap3\n      swap2\n      pop\n      pop\n      jump\t// out\n        /* \"#utility.yul\":1042:1159   */\n    tag_78:\n        /* \"#utility.yul\":1151:1152   */\n      0x00\n        /* \"#utility.yul\":1148:1149   */\n      dup1\n        /* \"#utility.yul\":1141:1153   */\n      revert\n        /* \"#utility.yul\":1165:1282   */\n    tag_79:\n        /* \"#utility.yul\":1274:1275   */\n      0x00\n        /* \"#utility.yul\":1271:1272   */\n      dup1\n        /* \"#utility.yul\":1264:1276   */\n      revert\n        /* \"#utility.yul\":1288:1405   */\n    tag_80:\n        /* \"#utility.yul\":1397:1398   */\n      0x00\n        /* \"#utility.yul\":1394:1395   */\n      dup1\n        /* \"#utility.yul\":1387:1399   */\n      revert\n        /* \"#utility.yul\":1424:1976   */\n    tag_81:\n        /* \"#utility.yul\":1481:1489   */\n      0x00\n        /* \"#utility.yul\":1491:1497   */\n      dup1\n        /* \"#utility.yul\":1541:1544   */\n      dup4\n        /* \"#utility.yul\":1534:1538   */\n      0x1f\n        /* \"#utility.yul\":1526:1532   */\n      dup5\n        /* \"#utility.yul\":1522:1539   */\n      add\n        /* \"#utility.yul\":1518:1545   */\n      slt\n        /* \"#utility.yul\":1508:1630   */\n      tag_127\n      jumpi\n        /* \"#utility.yul\":1549:1628   */\n      tag_128\n      tag_78\n      jump\t// in\n    tag_128:\n        /* \"#utility.yul\":1508:1630   */\n    tag_127:\n        /* \"#utility.yul\":1662:1668   */\n      dup3\n        /* \"#utility.yul\":1649:1669   */\n      calldataload\n        /* \"#utility.yul\":1639:1669   */\n      swap1\n      pop\n        /* \"#utility.yul\":1692:1710   */\n      0xffffffffffffffff\n        /* \"#utility.yul\":1684:1690   */\n      dup2\n        /* \"#utility.yul\":1681:1711   */\n      gt\n        /* \"#utility.yul\":1678:1795   */\n      iszero\n      tag_129\n      jumpi\n        /* \"#utility.yul\":1714:1793   */\n      tag_130\n      tag_79\n      jump\t// in\n    tag_130:\n        /* \"#utility.yul\":1678:1795   */\n    tag_129:\n        /* \"#utility.yul\":1828:1832   */\n      0x20\n        /* \"#utility.yul\":1820:1826   */\n      dup4\n        /* \"#utility.yul\":1816:1833   */\n      add\n        /* \"#utility.yul\":1804:1833   */\n      swap2\n      pop\n        /* \"#utility.yul\":1882:1885   */\n      dup4\n        /* \"#utility.yul\":1874:1878   */\n      0x01\n        /* \"#utility.yul\":1866:1872   */\n      dup3\n        /* \"#utility.yul\":1862:1879   */\n      mul\n        /* \"#utility.yul\":1852:1860   */\n      dup4\n        /* \"#utility.yul\":1848:1880   */\n      add\n        /* \"#utility.yul\":1845:1886   */\n      gt\n        /* \"#utility.yul\":1842:1970   */\n      iszero\n      tag_131\n      jumpi\n        /* \"#utility.yul\":1889:1968   */\n      tag_132\n      tag_80\n      jump\t// in\n    tag_132:\n        /* \"#utility.yul\":1842:1970   */\n    tag_131:\n        /* \"#utility.yul\":1424:1976   */\n      swap3\n      pop\n      swap3\n      swap1\n      pop\n      jump\t// out\n        /* \"#utility.yul\":1982:2654   */\n    tag_20:\n        /* \"#utility.yul\":2061:2067   */\n      0x00\n        /* \"#utility.yul\":2069:2075   */\n      dup1\n        /* \"#utility.yul\":2077:2083   */\n      0x00\n        /* \"#utility.yul\":2126:2128   */\n      0x40\n        /* \"#utility.yul\":2114:2123   */\n      dup5\n        /* \"#utility.yul\":2105:2112   */\n      dup7\n        /* \"#utility.yul\":2101:2124   */\n      sub\n        /* \"#utility.yul\":2097:2129   */\n      slt\n        /* \"#utility.yul\":2094:2213   */\n      iszero\n      tag_134\n      jumpi\n        /* \"#utility.yul\":2132:2211   */\n      tag_135\n      tag_74\n      jump\t// in\n    tag_135:\n        /* \"#utility.yul\":2094:2213   */\n    tag_134:\n        /* \"#utility.yul\":2252:2253   */\n      0x00\n        /* \"#utility.yul\":2277:2330   */\n      tag_136\n        /* \"#utility.yul\":2322:2329   */\n      dup7\n        /* \"#utility.yul\":2313:2319   */\n      dup3\n        /* \"#utility.yul\":2302:2311   */\n      dup8\n        /* \"#utility.yul\":2298:2320   */\n      add\n        /* \"#utility.yul\":2277:2330   */\n      tag_77\n      jump\t// in\n    tag_136:\n        /* \"#utility.yul\":2267:2330   */\n      swap4\n      pop\n        /* \"#utility.yul\":2223:2340   */\n      pop\n        /* \"#utility.yul\":2407:2409   */\n      0x20\n        /* \"#utility.yul\":2396:2405   */\n      dup5\n        /* \"#utility.yul\":2392:2410   */\n      add\n        /* \"#utility.yul\":2379:2411   */\n      calldataload\n        /* \"#utility.yul\":2438:2456   */\n      0xffffffffffffffff\n        /* \"#utility.yul\":2430:2436   */\n      dup2\n        /* \"#utility.yul\":2427:2457   */\n      gt\n        /* \"#utility.yul\":2424:2541   */\n      iszero\n      tag_137\n      jumpi\n        /* \"#utility.yul\":2460:2539   */\n      tag_138\n      tag_75\n      jump\t// in\n    tag_138:\n        /* \"#utility.yul\":2424:2541   */\n    tag_137:\n        /* \"#utility.yul\":2573:2637   */\n      tag_139\n        /* \"#utility.yul\":2629:2636   */\n      dup7\n        /* \"#utility.yul\":2620:2626   */\n      dup3\n        /* \"#utility.yul\":2609:2618   */\n      dup8\n        /* \"#utility.yul\":2605:2627   */\n      add\n        /* \"#utility.yul\":2573:2637   */\n      tag_81\n      jump\t// in\n    tag_139:\n        /* \"#utility.yul\":2555:2637   */\n      swap3\n      pop\n      swap3\n      pop\n        /* \"#utility.yul\":2350:2647   */\n      pop\n        /* \"#utility.yul\":1982:2654   */\n      swap3\n      pop\n      swap3\n      pop\n      swap3\n      jump\t// out\n        /* \"#utility.yul\":2660:2786   */\n    tag_82:\n        /* \"#utility.yul\":2697:2704   */\n      0x00\n        /* \"#utility.yul\":2737:2779   */\n      0xffffffffffffffffffffffffffffffffffffffff\n        /* \"#utility.yul\":2730:2735   */\n      dup3\n        /* \"#utility.yul\":2726:2780   */\n      and\n        /* \"#utility.yul\":2715:2780   */\n      swap1\n      pop\n        /* \"#utility.yul\":2660:2786   */\n      swap2\n      swap1\n      pop\n      jump\t// out\n        /* \"#utility.yul\":2792:2888   */\n    tag_83:\n        /* \"#utility.yul\":2829:2836   */\n      0x00\n        /* \"#utility.yul\":2858:2882   */\n      tag_142\n        /* \"#utility.yul\":2876:2881   */\n      dup3\n        /* \"#utility.yul\":2858:2882   */\n      tag_82\n      jump\t// in\n    tag_142:\n        /* \"#utility.yul\":2847:2882   */\n      swap1\n      pop\n        /* \"#utility.yul\":2792:2888   */\n      swap2\n      swap1\n      pop\n      jump\t// out\n        /* \"#utility.yul\":2894:3016   */\n    tag_84:\n        /* \"#utility.yul\":2967:2991   */\n      tag_144\n        /* \"#utility.yul\":2985:2990   */\n      dup2\n        /* \"#utility.yul\":2967:2991   */\n      tag_83\n      jump\t// in\n    tag_144:\n        /* \"#utility.yul\":2960:2965   */\n      dup2\n        /* \"#utility.yul\":2957:2992   */\n      eq\n        /* \"#utility.yul\":2947:3010   */\n      tag_145\n      jumpi\n        /* \"#utility.yul\":3006:3007   */\n      0x00\n        /* \"#utility.yul\":3003:3004   */\n      dup1\n        /* \"#utility.yul\":2996:3008   */\n      revert\n        /* \"#utility.yul\":2947:3010   */\n    tag_145:\n        /* \"#utility.yul\":2894:3016   */\n      pop\n      jump\t// out\n        /* \"#utility.yul\":3022:3161   */\n    tag_85:\n        /* \"#utility.yul\":3068:3073   */\n      0x00\n        /* \"#utility.yul\":3106:3112   */\n      dup2\n        /* \"#utility.yul\":3093:3113   */\n      calldataload\n        /* \"#utility.yul\":3084:3113   */\n      swap1\n      pop\n        /* \"#utility.yul\":3122:3155   */\n      tag_147\n        /* \"#utility.yul\":3149:3154   */\n      dup2\n        /* \"#utility.yul\":3122:3155   */\n      tag_84\n      jump\t// in\n    tag_147:\n        /* \"#utility.yul\":3022:3161   */\n      swap3\n      swap2\n      pop\n      pop\n      jump\t// out\n        /* \"#utility.yul\":3167:3932   */\n    tag_24:\n        /* \"#utility.yul\":3253:3259   */\n      0x00\n        /* \"#utility.yul\":3261:3267   */\n      dup1\n        /* \"#utility.yul\":3269:3275   */\n      0x00\n        /* \"#utility.yul\":3277:3283   */\n      dup1\n        /* \"#utility.yul\":3326:3329   */\n      0x80\n        /* \"#utility.yul\":3314:3323   */\n      dup6\n        /* \"#utility.yul\":3305:3312   */\n      dup8\n        /* \"#utility.yul\":3301:3324   */\n      sub\n        /* \"#utility.yul\":3297:3330   */\n      slt\n        /* \"#utility.yul\":3294:3414   */\n      iszero\n      tag_149\n      jumpi\n        /* \"#utility.yul\":3333:3412   */\n      tag_150\n      tag_74\n      jump\t// in\n    tag_150:\n        /* \"#utility.yul\":3294:3414   */\n    tag_149:\n        /* \"#utility.yul\":3453:3454   */\n      0x00\n        /* \"#utility.yul\":3478:3531   */\n      tag_151\n        /* \"#utility.yul\":3523:3530   */\n      dup8\n        /* \"#utility.yul\":3514:3520   */\n      dup3\n        /* \"#utility.yul\":3503:3512   */\n      dup9\n        /* \"#utility.yul\":3499:3521   */\n      add\n        /* \"#utility.yul\":3478:3531   */\n      tag_85\n      jump\t// in\n    tag_151:\n        /* \"#utility.yul\":3468:3531   */\n      swap5\n      pop\n        /* \"#utility.yul\":3424:3541   */\n      pop\n        /* \"#utility.yul\":3580:3582   */\n      0x20\n        /* \"#utility.yul\":3606:3659   */\n      tag_152\n        /* \"#utility.yul\":3651:3658   */\n      dup8\n        /* \"#utility.yul\":3642:3648   */\n      dup3\n        /* \"#utility.yul\":3631:3640   */\n      dup9\n        /* \"#utility.yul\":3627:3649   */\n      add\n        /* \"#utility.yul\":3606:3659   */\n      tag_77\n      jump\t// in\n    tag_152:\n        /* \"#utility.yul\":3596:3659   */\n      swap4\n      pop\n        /* \"#utility.yul\":3551:3669   */\n      pop\n        /* \"#utility.yul\":3708:3710   */\n      0x40\n        /* \"#utility.yul\":3734:3787   */\n      tag_153\n        /* \"#utility.yul\":3779:3786   */\n      dup8\n        /* \"#utility.yul\":3770:3776   */\n      dup3\n        /* \"#utility.yul\":3759:3768   */\n      dup9\n        /* \"#utility.yul\":3755:3777   */\n      add\n        /* \"#utility.yul\":3734:3787   */\n      tag_77\n      jump\t// in\n    tag_153:\n        /* \"#utility.yul\":3724:3787   */\n      swap3\n      pop\n        /* \"#utility.yul\":3679:3797   */\n      pop\n        /* \"#utility.yul\":3836:3838   */\n      0x60\n        /* \"#utility.yul\":3862:3915   */\n      tag_154\n        /* \"#utility.yul\":3907:3914   */\n      dup8\n        /* \"#utility.yul\":3898:3904   */\n      dup3\n        /* \"#utility.yul\":3887:3896   */\n      dup9\n        /* \"#utility.yul\":3883:3905   */\n      add\n        /* \"#utility.yul\":3862:3915   */\n      tag_85\n      jump\t// in\n    tag_154:\n        /* \"#utility.yul\":3852:3915   */\n      swap2\n      pop\n        /* \"#utility.yul\":3807:3925   */\n      pop\n        /* \"#utility.yul\":3167:3932   */\n      swap3\n      swap6\n      swap2\n      swap5\n      pop\n      swap3\n      pop\n      jump\t// out\n        /* \"#utility.yul\":3938:3998   */\n    tag_86:\n        /* \"#utility.yul\":3966:3969   */\n      0x00\n        /* \"#utility.yul\":3987:3992   */\n      dup2\n        /* \"#utility.yul\":3980:3992   */\n      swap1\n      pop\n        /* \"#utility.yul\":3938:3998   */\n      swap2\n      swap1\n      pop\n      jump\t// out\n        /* \"#utility.yul\":4004:4146   */\n    tag_87:\n        /* \"#utility.yul\":4054:4063   */\n      0x00\n        /* \"#utility.yul\":4087:4140   */\n      tag_157\n        /* \"#utility.yul\":4105:4139   */\n      tag_158\n        /* \"#utility.yul\":4114:4138   */\n      tag_159\n        /* \"#utility.yul\":4132:4137   */\n      dup5\n        /* \"#utility.yul\":4114:4138   */\n      tag_82\n      jump\t// in\n    tag_159:\n        /* \"#utility.yul\":4105:4139   */\n      tag_86\n      jump\t// in\n    tag_158:\n        /* \"#utility.yul\":4087:4140   */\n      tag_82\n      jump\t// in\n    tag_157:\n        /* \"#utility.yul\":4074:4140   */\n      swap1\n      pop\n        /* \"#utility.yul\":4004:4146   */\n      swap2\n      swap1\n      pop\n      jump\t// out\n        /* \"#utility.yul\":4152:4278   */\n    tag_88:\n        /* \"#utility.yul\":4202:4211   */\n      0x00\n        /* \"#utility.yul\":4235:4272   */\n      tag_161\n        /* \"#utility.yul\":4266:4271   */\n      dup3\n        /* \"#utility.yul\":4235:4272   */\n      tag_87\n      jump\t// in\n    tag_161:\n        /* \"#utility.yul\":4222:4272   */\n      swap1\n      pop\n        /* \"#utility.yul\":4152:4278   */\n      swap2\n      swap1\n      pop\n      jump\t// out\n        /* \"#utility.yul\":4284:4431   */\n    tag_89:\n        /* \"#utility.yul\":4355:4364   */\n      0x00\n        /* \"#utility.yul\":4388:4425   */\n      tag_163\n        /* \"#utility.yul\":4419:4424   */\n      dup3\n        /* \"#utility.yul\":4388:4425   */\n      tag_88\n      jump\t// in\n    tag_163:\n        /* \"#utility.yul\":4375:4425   */\n      swap1\n      pop\n        /* \"#utility.yul\":4284:4431   */\n      swap2\n      swap1\n      pop\n      jump\t// out\n        /* \"#utility.yul\":4437:4610   */\n    tag_90:\n        /* \"#utility.yul\":4545:4603   */\n      tag_165\n        /* \"#utility.yul\":4597:4602   */\n      dup2\n        /* \"#utility.yul\":4545:4603   */\n      tag_89\n      jump\t// in\n    tag_165:\n        /* \"#utility.yul\":4540:4543   */\n      dup3\n        /* \"#utility.yul\":4533:4604   */\n      mstore\n        /* \"#utility.yul\":4437:4610   */\n      pop\n      pop\n      jump\t// out\n        /* \"#utility.yul\":4616:4880   */\n    tag_29:\n        /* \"#utility.yul\":4730:4734   */\n      0x00\n        /* \"#utility.yul\":4768:4770   */\n      0x20\n        /* \"#utility.yul\":4757:4766   */\n      dup3\n        /* \"#utility.yul\":4753:4771   */\n      add\n        /* \"#utility.yul\":4745:4771   */\n      swap1\n      pop\n        /* \"#utility.yul\":4781:4873   */\n      tag_167\n        /* \"#utility.yul\":4870:4871   */\n      0x00\n        /* \"#utility.yul\":4859:4868   */\n      dup4\n        /* \"#utility.yul\":4855:4872   */\n      add\n        /* \"#utility.yul\":4846:4852   */\n      dup5\n        /* \"#utility.yul\":4781:4873   */\n      tag_90\n      jump\t// in\n    tag_167:\n        /* \"#utility.yul\":4616:4880   */\n      swap3\n      swap2\n      pop\n      pop\n      jump\t// out\n        /* \"#utility.yul\":4886:5215   */\n    tag_32:\n        /* \"#utility.yul\":4945:4951   */\n      0x00\n        /* \"#utility.yul\":4994:4996   */\n      0x20\n        /* \"#utility.yul\":4982:4991   */\n      dup3\n        /* \"#utility.yul\":4973:4980   */\n      dup5\n        /* \"#utility.yul\":4969:4992   */\n      sub\n        /* \"#utility.yul\":4965:4997   */\n      slt\n        /* \"#utility.yul\":4962:5081   */\n      iszero\n      tag_169\n      jumpi\n        /* \"#utility.yul\":5000:5079   */\n      tag_170\n      tag_74\n      jump\t// in\n    tag_170:\n        /* \"#utility.yul\":4962:5081   */\n    tag_169:\n        /* \"#utility.yul\":5120:5121   */\n      0x00\n        /* \"#utility.yul\":5145:5198   */\n      tag_171\n        /* \"#utility.yul\":5190:5197   */\n      dup5\n        /* \"#utility.yul\":5181:5187   */\n      dup3\n        /* \"#utility.yul\":5170:5179   */\n      dup6\n        /* \"#utility.yul\":5166:5188   */\n      add\n        /* \"#utility.yul\":5145:5198   */\n      tag_77\n      jump\t// in\n    tag_171:\n        /* \"#utility.yul\":5135:5198   */\n      swap2\n      pop\n        /* \"#utility.yul\":5091:5208   */\n      pop\n        /* \"#utility.yul\":4886:5215   */\n      swap3\n      swap2\n      pop\n      pop\n      jump\t// out\n        /* \"#utility.yul\":5221:5311   */\n    tag_91:\n        /* \"#utility.yul\":5255:5262   */\n      0x00\n        /* \"#utility.yul\":5298:5303   */\n      dup2\n        /* \"#utility.yul\":5291:5304   */\n      iszero\n        /* \"#utility.yul\":5284:5305   */\n      iszero\n        /* \"#utility.yul\":5273:5305   */\n      swap1\n      pop\n        /* \"#utility.yul\":5221:5311   */\n      swap2\n      swap1\n      pop\n      jump\t// out\n        /* \"#utility.yul\":5317:5426   */\n    tag_92:\n        /* \"#utility.yul\":5398:5419   */\n      tag_174\n        /* \"#utility.yul\":5413:5418   */\n      dup2\n        /* \"#utility.yul\":5398:5419   */\n      tag_91\n      jump\t// in\n    tag_174:\n        /* \"#utility.yul\":5393:5396   */\n      dup3\n        /* \"#utility.yul\":5386:5420   */\n      mstore\n        /* \"#utility.yul\":5317:5426   */\n      pop\n      pop\n      jump\t// out\n        /* \"#utility.yul\":5432:5642   */\n    tag_35:\n        /* \"#utility.yul\":5519:5523   */\n      0x00\n        /* \"#utility.yul\":5557:5559   */\n      0x20\n        /* \"#utility.yul\":5546:5555   */\n      dup3\n        /* \"#utility.yul\":5542:5560   */\n      add\n        /* \"#utility.yul\":5534:5560   */\n      swap1\n      pop\n        /* \"#utility.yul\":5570:5635   */\n      tag_176\n        /* \"#utility.yul\":5632:5633   */\n      0x00\n        /* \"#utility.yul\":5621:5630   */\n      dup4\n        /* \"#utility.yul\":5617:5634   */\n      add\n        /* \"#utility.yul\":5608:5614   */\n      dup5\n        /* \"#utility.yul\":5570:5635   */\n      tag_92\n      jump\t// in\n    tag_176:\n        /* \"#utility.yul\":5432:5642   */\n      swap3\n      swap2\n      pop\n      pop\n      jump\t// out\n        /* \"#utility.yul\":5648:5766   */\n    tag_93:\n        /* \"#utility.yul\":5735:5759   */\n      tag_178\n        /* \"#utility.yul\":5753:5758   */\n      dup2\n        /* \"#utility.yul\":5735:5759   */\n      tag_83\n      jump\t// in\n    tag_178:\n        /* \"#utility.yul\":5730:5733   */\n      dup3\n        /* \"#utility.yul\":5723:5760   */\n      mstore\n        /* \"#utility.yul\":5648:5766   */\n      pop\n      pop\n      jump\t// out\n        /* \"#utility.yul\":5772:5994   */\n    tag_42:\n        /* \"#utility.yul\":5865:5869   */\n      0x00\n        /* \"#utility.yul\":5903:5905   */\n      0x20\n        /* \"#utility.yul\":5892:5901   */\n      dup3\n        /* \"#utility.yul\":5888:5906   */\n      add\n        /* \"#utility.yul\":5880:5906   */\n      swap1\n      pop\n        /* \"#utility.yul\":5916:5987   */\n      tag_180\n        /* \"#utility.yul\":5984:5985   */\n      0x00\n        /* \"#utility.yul\":5973:5982   */\n      dup4\n        /* \"#utility.yul\":5969:5986   */\n      add\n        /* \"#utility.yul\":5960:5966   */\n      dup5\n        /* \"#utility.yul\":5916:5987   */\n      tag_93\n      jump\t// in\n    tag_180:\n        /* \"#utility.yul\":5772:5994   */\n      swap3\n      swap2\n      pop\n      pop\n      jump\t// out\n        /* \"#utility.yul\":6000:6077   */\n    tag_94:\n        /* \"#utility.yul\":6037:6044   */\n      0x00\n        /* \"#utility.yul\":6066:6071   */\n      dup2\n        /* \"#utility.yul\":6055:6071   */\n      swap1\n      pop\n        /* \"#utility.yul\":6000:6077   */\n      swap2\n      swap1\n      pop\n      jump\t// out\n        /* \"#utility.yul\":6083:6201   */\n    tag_95:\n        /* \"#utility.yul\":6170:6194   */\n      tag_183\n        /* \"#utility.yul\":6188:6193   */\n      dup2\n        /* \"#utility.yul\":6170:6194   */\n      tag_94\n      jump\t// in\n    tag_183:\n        /* \"#utility.yul\":6165:6168   */\n      dup3\n        /* \"#utility.yul\":6158:6195   */\n      mstore\n        /* \"#utility.yul\":6083:6201   */\n      pop\n      pop\n      jump\t// out\n        /* \"#utility.yul\":6207:6429   */\n    tag_49:\n        /* \"#utility.yul\":6300:6304   */\n      0x00\n        /* \"#utility.yul\":6338:6340   */\n      0x20\n        /* \"#utility.yul\":6327:6336   */\n      dup3\n        /* \"#utility.yul\":6323:6341   */\n      add\n        /* \"#utility.yul\":6315:6341   */\n      swap1\n      pop\n        /* \"#utility.yul\":6351:6422   */\n      tag_185\n        /* \"#utility.yul\":6419:6420   */\n      0x00\n        /* \"#utility.yul\":6408:6417   */\n      dup4\n        /* \"#utility.yul\":6404:6421   */\n      add\n        /* \"#utility.yul\":6395:6401   */\n      dup5\n        /* \"#utility.yul\":6351:6422   */\n      tag_95\n      jump\t// in\n    tag_185:\n        /* \"#utility.yul\":6207:6429   */\n      swap3\n      swap2\n      pop\n      pop\n      jump\t// out\n        /* \"#utility.yul\":6435:6604   */\n    tag_96:\n        /* \"#utility.yul\":6519:6530   */\n      0x00\n        /* \"#utility.yul\":6553:6559   */\n      dup3\n        /* \"#utility.yul\":6548:6551   */\n      dup3\n        /* \"#utility.yul\":6541:6560   */\n      mstore\n        /* \"#utility.yul\":6593:6597   */\n      0x20\n        /* \"#utility.yul\":6588:6591   */\n      dup3\n        /* \"#utility.yul\":6584:6598   */\n      add\n        /* \"#utility.yul\":6569:6598   */\n      swap1\n      pop\n        /* \"#utility.yul\":6435:6604   */\n      swap3\n      swap2\n      pop\n      pop\n      jump\t// out\n        /* \"#utility.yul\":6610:6782   */\n    tag_97:\n        /* \"#utility.yul\":6750:6774   */\n      0x43616c6c6572206e6f74204169726e6f64652052525000000000000000000000\n        /* \"#utility.yul\":6746:6747   */\n      0x00\n        /* \"#utility.yul\":6738:6744   */\n      dup3\n        /* \"#utility.yul\":6734:6748   */\n      add\n        /* \"#utility.yul\":6727:6775   */\n      mstore\n        /* \"#utility.yul\":6610:6782   */\n      pop\n      jump\t// out\n        /* \"#utility.yul\":6788:7154   */\n    tag_98:\n        /* \"#utility.yul\":6930:6933   */\n      0x00\n        /* \"#utility.yul\":6951:7018   */\n      tag_189\n        /* \"#utility.yul\":7015:7017   */\n      0x16\n        /* \"#utility.yul\":7010:7013   */\n      dup4\n        /* \"#utility.yul\":6951:7018   */\n      tag_96\n      jump\t// in\n    tag_189:\n        /* \"#utility.yul\":6944:7018   */\n      swap2\n      pop\n        /* \"#utility.yul\":7027:7120   */\n      tag_190\n        /* \"#utility.yul\":7116:7119   */\n      dup3\n        /* \"#utility.yul\":7027:7120   */\n      tag_97\n      jump\t// in\n    tag_190:\n        /* \"#utility.yul\":7145:7147   */\n      0x20\n        /* \"#utility.yul\":7140:7143   */\n      dup3\n        /* \"#utility.yul\":7136:7148   */\n      add\n        /* \"#utility.yul\":7129:7148   */\n      swap1\n      pop\n        /* \"#utility.yul\":6788:7154   */\n      swap2\n      swap1\n      pop\n      jump\t// out\n        /* \"#utility.yul\":7160:7579   */\n    tag_55:\n        /* \"#utility.yul\":7326:7330   */\n      0x00\n        /* \"#utility.yul\":7364:7366   */\n      0x20\n        /* \"#utility.yul\":7353:7362   */\n      dup3\n        /* \"#utility.yul\":7349:7367   */\n      add\n        /* \"#utility.yul\":7341:7367   */\n      swap1\n      pop\n        /* \"#utility.yul\":7413:7422   */\n      dup2\n        /* \"#utility.yul\":7407:7411   */\n      dup2\n        /* \"#utility.yul\":7403:7423   */\n      sub\n        /* \"#utility.yul\":7399:7400   */\n      0x00\n        /* \"#utility.yul\":7388:7397   */\n      dup4\n        /* \"#utility.yul\":7384:7401   */\n      add\n        /* \"#utility.yul\":7377:7424   */\n      mstore\n        /* \"#utility.yul\":7441:7572   */\n      tag_192\n        /* \"#utility.yul\":7567:7571   */\n      dup2\n        /* \"#utility.yul\":7441:7572   */\n      tag_98\n      jump\t// in\n    tag_192:\n        /* \"#utility.yul\":7433:7572   */\n      swap1\n      pop\n        /* \"#utility.yul\":7160:7579   */\n      swap2\n      swap1\n      pop\n      jump\t// out\n        /* \"#utility.yul\":7585:7753   */\n    tag_99:\n        /* \"#utility.yul\":7725:7745   */\n      0x5265717565737420696420756e6b6e6f776e0000000000000000000000000000\n        /* \"#utility.yul\":7721:7722   */\n      0x00\n        /* \"#utility.yul\":7713:7719   */\n      dup3\n        /* \"#utility.yul\":7709:7723   */\n      add\n        /* \"#utility.yul\":7702:7746   */\n      mstore\n        /* \"#utility.yul\":7585:7753   */\n      pop\n      jump\t// out\n        /* \"#utility.yul\":7759:8125   */\n    tag_100:\n        /* \"#utility.yul\":7901:7904   */\n      0x00\n        /* \"#utility.yul\":7922:7989   */\n      tag_195\n        /* \"#utility.yul\":7986:7988   */\n      0x12\n        /* \"#utility.yul\":7981:7984   */\n      dup4\n        /* \"#utility.yul\":7922:7989   */\n      tag_96\n      jump\t// in\n    tag_195:\n        /* \"#utility.yul\":7915:7989   */\n      swap2\n      pop\n        /* \"#utility.yul\":7998:8091   */\n      tag_196\n        /* \"#utility.yul\":8087:8090   */\n      dup3\n        /* \"#utility.yul\":7998:8091   */\n      tag_99\n      jump\t// in\n    tag_196:\n        /* \"#utility.yul\":8116:8118   */\n      0x20\n        /* \"#utility.yul\":8111:8114   */\n      dup3\n        /* \"#utility.yul\":8107:8119   */\n      add\n        /* \"#utility.yul\":8100:8119   */\n      swap1\n      pop\n        /* \"#utility.yul\":7759:8125   */\n      swap2\n      swap1\n      pop\n      jump\t// out\n        /* \"#utility.yul\":8131:8550   */\n    tag_59:\n        /* \"#utility.yul\":8297:8301   */\n      0x00\n        /* \"#utility.yul\":8335:8337   */\n      0x20\n        /* \"#utility.yul\":8324:8333   */\n      dup3\n        /* \"#utility.yul\":8320:8338   */\n      add\n        /* \"#utility.yul\":8312:8338   */\n      swap1\n      pop\n        /* \"#utility.yul\":8384:8393   */\n      dup2\n        /* \"#utility.yul\":8378:8382   */\n      dup2\n        /* \"#utility.yul\":8374:8394   */\n      sub\n        /* \"#utility.yul\":8370:8371   */\n      0x00\n        /* \"#utility.yul\":8359:8368   */\n      dup4\n        /* \"#utility.yul\":8355:8372   */\n      add\n        /* \"#utility.yul\":8348:8395   */\n      mstore\n        /* \"#utility.yul\":8412:8543   */\n      tag_198\n        /* \"#utility.yul\":8538:8542   */\n      dup2\n        /* \"#utility.yul\":8412:8543   */\n      tag_100\n      jump\t// in\n    tag_198:\n        /* \"#utility.yul\":8404:8543   */\n      swap1\n      pop\n        /* \"#utility.yul\":8131:8550   */\n      swap2\n      swap1\n      pop\n      jump\t// out\n        /* \"#utility.yul\":8556:8678   */\n    tag_101:\n        /* \"#utility.yul\":8629:8653   */\n      tag_200\n        /* \"#utility.yul\":8647:8652   */\n      dup2\n        /* \"#utility.yul\":8629:8653   */\n      tag_94\n      jump\t// in\n    tag_200:\n        /* \"#utility.yul\":8622:8627   */\n      dup2\n        /* \"#utility.yul\":8619:8654   */\n      eq\n        /* \"#utility.yul\":8609:8672   */\n      tag_201\n      jumpi\n        /* \"#utility.yul\":8668:8669   */\n      0x00\n        /* \"#utility.yul\":8665:8666   */\n      dup1\n        /* \"#utility.yul\":8658:8670   */\n      revert\n        /* \"#utility.yul\":8609:8672   */\n    tag_201:\n        /* \"#utility.yul\":8556:8678   */\n      pop\n      jump\t// out\n        /* \"#utility.yul\":8684:8823   */\n    tag_102:\n        /* \"#utility.yul\":8730:8735   */\n      0x00\n        /* \"#utility.yul\":8768:8774   */\n      dup2\n        /* \"#utility.yul\":8755:8775   */\n      calldataload\n        /* \"#utility.yul\":8746:8775   */\n      swap1\n      pop\n        /* \"#utility.yul\":8784:8817   */\n      tag_203\n        /* \"#utility.yul\":8811:8816   */\n      dup2\n        /* \"#utility.yul\":8784:8817   */\n      tag_101\n      jump\t// in\n    tag_203:\n        /* \"#utility.yul\":8684:8823   */\n      swap3\n      swap2\n      pop\n      pop\n      jump\t// out\n        /* \"#utility.yul\":8829:9158   */\n    tag_61:\n        /* \"#utility.yul\":8888:8894   */\n      0x00\n        /* \"#utility.yul\":8937:8939   */\n      0x20\n        /* \"#utility.yul\":8925:8934   */\n      dup3\n        /* \"#utility.yul\":8916:8923   */\n      dup5\n        /* \"#utility.yul\":8912:8935   */\n      sub\n        /* \"#utility.yul\":8908:8940   */\n      slt\n        /* \"#utility.yul\":8905:9024   */\n      iszero\n      tag_205\n      jumpi\n        /* \"#utility.yul\":8943:9022   */\n      tag_206\n      tag_74\n      jump\t// in\n    tag_206:\n        /* \"#utility.yul\":8905:9024   */\n    tag_205:\n        /* \"#utility.yul\":9063:9064   */\n      0x00\n        /* \"#utility.yul\":9088:9141   */\n      tag_207\n        /* \"#utility.yul\":9133:9140   */\n      dup5\n        /* \"#utility.yul\":9124:9130   */\n      dup3\n        /* \"#utility.yul\":9113:9122   */\n      dup6\n        /* \"#utility.yul\":9109:9131   */\n      add\n        /* \"#utility.yul\":9088:9141   */\n      tag_102\n      jump\t// in\n    tag_207:\n        /* \"#utility.yul\":9078:9141   */\n      swap2\n      pop\n        /* \"#utility.yul\":9034:9151   */\n      pop\n        /* \"#utility.yul\":8829:9158   */\n      swap3\n      swap2\n      pop\n      pop\n      jump\t// out\n        /* \"#utility.yul\":9164:9313   */\n    tag_103:\n        /* \"#utility.yul\":9200:9207   */\n      0x00\n        /* \"#utility.yul\":9240:9306   */\n      0xffffffff00000000000000000000000000000000000000000000000000000000\n        /* \"#utility.yul\":9233:9238   */\n      dup3\n        /* \"#utility.yul\":9229:9307   */\n      and\n        /* \"#utility.yul\":9218:9307   */\n      swap1\n      pop\n        /* \"#utility.yul\":9164:9313   */\n      swap2\n      swap1\n      pop\n      jump\t// out\n        /* \"#utility.yul\":9319:9434   */\n    tag_104:\n        /* \"#utility.yul\":9404:9427   */\n      tag_210\n        /* \"#utility.yul\":9421:9426   */\n      dup2\n        /* \"#utility.yul\":9404:9427   */\n      tag_103\n      jump\t// in\n    tag_210:\n        /* \"#utility.yul\":9399:9402   */\n      dup3\n        /* \"#utility.yul\":9392:9428   */\n      mstore\n        /* \"#utility.yul\":9319:9434   */\n      pop\n      pop\n      jump\t// out\n        /* \"#utility.yul\":9440:9608   */\n    tag_105:\n        /* \"#utility.yul\":9523:9534   */\n      0x00\n        /* \"#utility.yul\":9557:9563   */\n      dup3\n        /* \"#utility.yul\":9552:9555   */\n      dup3\n        /* \"#utility.yul\":9545:9564   */\n      mstore\n        /* \"#utility.yul\":9597:9601   */\n      0x20\n        /* \"#utility.yul\":9592:9595   */\n      dup3\n        /* \"#utility.yul\":9588:9602   */\n      add\n        /* \"#utility.yul\":9573:9602   */\n      swap1\n      pop\n        /* \"#utility.yul\":9440:9608   */\n      swap3\n      swap2\n      pop\n      pop\n      jump\t// out\n        /* \"#utility.yul\":9614:9728   */\n    tag_106:\n      pop\n      jump\t// out\n        /* \"#utility.yul\":9734:10096   */\n    tag_107:\n        /* \"#utility.yul\":9875:9878   */\n      0x00\n        /* \"#utility.yul\":9896:9961   */\n      tag_214\n        /* \"#utility.yul\":9959:9960   */\n      0x00\n        /* \"#utility.yul\":9954:9957   */\n      dup4\n        /* \"#utility.yul\":9896:9961   */\n      tag_105\n      jump\t// in\n    tag_214:\n        /* \"#utility.yul\":9889:9961   */\n      swap2\n      pop\n        /* \"#utility.yul\":9970:10063   */\n      tag_215\n        /* \"#utility.yul\":10059:10062   */\n      dup3\n        /* \"#utility.yul\":9970:10063   */\n      tag_106\n      jump\t// in\n    tag_215:\n        /* \"#utility.yul\":10088:10089   */\n      0x00\n        /* \"#utility.yul\":10083:10086   */\n      dup3\n        /* \"#utility.yul\":10079:10090   */\n      add\n        /* \"#utility.yul\":10072:10090   */\n      swap1\n      pop\n        /* \"#utility.yul\":9734:10096   */\n      swap2\n      swap1\n      pop\n      jump\t// out\n        /* \"#utility.yul\":10102:11179   */\n    tag_66:\n        /* \"#utility.yul\":10433:10437   */\n      0x00\n        /* \"#utility.yul\":10471:10474   */\n      0xe0\n        /* \"#utility.yul\":10460:10469   */\n      dup3\n        /* \"#utility.yul\":10456:10475   */\n      add\n        /* \"#utility.yul\":10448:10475   */\n      swap1\n      pop\n        /* \"#utility.yul\":10485:10556   */\n      tag_217\n        /* \"#utility.yul\":10553:10554   */\n      0x00\n        /* \"#utility.yul\":10542:10551   */\n      dup4\n        /* \"#utility.yul\":10538:10555   */\n      add\n        /* \"#utility.yul\":10529:10535   */\n      dup10\n        /* \"#utility.yul\":10485:10556   */\n      tag_93\n      jump\t// in\n    tag_217:\n        /* \"#utility.yul\":10566:10638   */\n      tag_218\n        /* \"#utility.yul\":10634:10636   */\n      0x20\n        /* \"#utility.yul\":10623:10632   */\n      dup4\n        /* \"#utility.yul\":10619:10637   */\n      add\n        /* \"#utility.yul\":10610:10616   */\n      dup9\n        /* \"#utility.yul\":10566:10638   */\n      tag_72\n      jump\t// in\n    tag_218:\n        /* \"#utility.yul\":10648:10720   */\n      tag_219\n        /* \"#utility.yul\":10716:10718   */\n      0x40\n        /* \"#utility.yul\":10705:10714   */\n      dup4\n        /* \"#utility.yul\":10701:10719   */\n      add\n        /* \"#utility.yul\":10692:10698   */\n      dup8\n        /* \"#utility.yul\":10648:10720   */\n      tag_93\n      jump\t// in\n    tag_219:\n        /* \"#utility.yul\":10730:10802   */\n      tag_220\n        /* \"#utility.yul\":10798:10800   */\n      0x60\n        /* \"#utility.yul\":10787:10796   */\n      dup4\n        /* \"#utility.yul\":10783:10801   */\n      add\n        /* \"#utility.yul\":10774:10780   */\n      dup7\n        /* \"#utility.yul\":10730:10802   */\n      tag_93\n      jump\t// in\n    tag_220:\n        /* \"#utility.yul\":10812:10885   */\n      tag_221\n        /* \"#utility.yul\":10880:10883   */\n      0x80\n        /* \"#utility.yul\":10869:10878   */\n      dup4\n        /* \"#utility.yul\":10865:10884   */\n      add\n        /* \"#utility.yul\":10856:10862   */\n      dup6\n        /* \"#utility.yul\":10812:10885   */\n      tag_93\n      jump\t// in\n    tag_221:\n        /* \"#utility.yul\":10895:10966   */\n      tag_222\n        /* \"#utility.yul\":10961:10964   */\n      0xa0\n        /* \"#utility.yul\":10950:10959   */\n      dup4\n        /* \"#utility.yul\":10946:10965   */\n      add\n        /* \"#utility.yul\":10937:10943   */\n      dup5\n        /* \"#utility.yul\":10895:10966   */\n      tag_104\n      jump\t// in\n    tag_222:\n        /* \"#utility.yul\":11014:11023   */\n      dup2\n        /* \"#utility.yul\":11008:11012   */\n      dup2\n        /* \"#utility.yul\":11004:11024   */\n      sub\n        /* \"#utility.yul\":10998:11001   */\n      0xc0\n        /* \"#utility.yul\":10987:10996   */\n      dup4\n        /* \"#utility.yul\":10983:11002   */\n      add\n        /* \"#utility.yul\":10976:11025   */\n      mstore\n        /* \"#utility.yul\":11042:11172   */\n      tag_223\n        /* \"#utility.yul\":11167:11171   */\n      dup2\n        /* \"#utility.yul\":11042:11172   */\n      tag_107\n      jump\t// in\n    tag_223:\n        /* \"#utility.yul\":11034:11172   */\n      swap1\n      pop\n        /* \"#utility.yul\":10102:11179   */\n      swap8\n      swap7\n      pop\n      pop\n      pop\n      pop\n      pop\n      pop\n      pop\n      jump\t// out\n        /* \"#utility.yul\":11185:11328   */\n    tag_108:\n        /* \"#utility.yul\":11242:11247   */\n      0x00\n        /* \"#utility.yul\":11273:11279   */\n      dup2\n        /* \"#utility.yul\":11267:11280   */\n      mload\n        /* \"#utility.yul\":11258:11280   */\n      swap1\n      pop\n        /* \"#utility.yul\":11289:11322   */\n      tag_225\n        /* \"#utility.yul\":11316:11321   */\n      dup2\n        /* \"#utility.yul\":11289:11322   */\n      tag_76\n      jump\t// in\n    tag_225:\n        /* \"#utility.yul\":11185:11328   */\n      swap3\n      swap2\n      pop\n      pop\n      jump\t// out\n        /* \"#utility.yul\":11334:11685   */\n    tag_70:\n        /* \"#utility.yul\":11404:11410   */\n      0x00\n        /* \"#utility.yul\":11453:11455   */\n      0x20\n        /* \"#utility.yul\":11441:11450   */\n      dup3\n        /* \"#utility.yul\":11432:11439   */\n      dup5\n        /* \"#utility.yul\":11428:11451   */\n      sub\n        /* \"#utility.yul\":11424:11456   */\n      slt\n        /* \"#utility.yul\":11421:11540   */\n      iszero\n      tag_227\n      jumpi\n        /* \"#utility.yul\":11459:11538   */\n      tag_228\n      tag_74\n      jump\t// in\n    tag_228:\n        /* \"#utility.yul\":11421:11540   */\n    tag_227:\n        /* \"#utility.yul\":11579:11580   */\n      0x00\n        /* \"#utility.yul\":11604:11668   */\n      tag_229\n        /* \"#utility.yul\":11660:11667   */\n      dup5\n        /* \"#utility.yul\":11651:11657   */\n      dup3\n        /* \"#utility.yul\":11640:11649   */\n      dup6\n        /* \"#utility.yul\":11636:11658   */\n      add\n        /* \"#utility.yul\":11604:11668   */\n      tag_108\n      jump\t// in\n    tag_229:\n        /* \"#utility.yul\":11594:11668   */\n      swap2\n      pop\n        /* \"#utility.yul\":11550:11678   */\n      pop\n        /* \"#utility.yul\":11334:11685   */\n      swap3\n      swap2\n      pop\n      pop\n      jump\t// out\n\n    auxdata: 0xa2646970667358221220190ebe1f422c80427fc88dfd6328349b96af2aafef86285109f75398ba71f24d64736f6c63430008160033\n}\n",
				"bytecode": {
					"linkReferences": {},
					"object": "60a060405234801562000010575f80fd5b5060405162000d2a38038062000d2a833981810160405281019062000036919062000145565b808073ffffffffffffffffffffffffffffffffffffffff1660808173ffffffffffffffffffffffffffffffffffffffff16815250508073ffffffffffffffffffffffffffffffffffffffff1663addf027c3060016040518363ffffffff1660e01b8152600401620000a9929190620001a2565b5f604051808303815f87803b158015620000c1575f80fd5b505af1158015620000d4573d5f803e3d5ffd5b505050505050620001cd565b5f80fd5b5f73ffffffffffffffffffffffffffffffffffffffff82169050919050565b5f6200010f82620000e4565b9050919050565b620001218162000103565b81146200012c575f80fd5b50565b5f815190506200013f8162000116565b92915050565b5f602082840312156200015d576200015c620000e0565b5b5f6200016c848285016200012f565b91505092915050565b620001808162000103565b82525050565b5f8115159050919050565b6200019c8162000186565b82525050565b5f604082019050620001b75f83018562000175565b620001c6602083018462000191565b9392505050565b608051610b36620001f45f395f81816101ce015281816103c8015261045e0152610b365ff3fe608060405234801561000f575f80fd5b506004361061009c575f3560e01c8063a19954af11610064578063a19954af14610144578063a36ff4d814610162578063bf90fb4e14610180578063ce26da8b1461019e578063dea12bad146101bc5761009c565b806307b9fc57146100a05780633718d90a146100be5780635675e4e4146100da57806371bab666146100f6578063851244f714610114575b5f80fd5b6100a86101c6565b6040516100b591906105bb565b60405180910390f35b6100d860048036038101906100d39190610667565b6101cc565b005b6100f460048036038101906100ef919061071e565b610333565b005b6100fe6103c6565b60405161010b91906107dd565b60405180910390f35b61012e600480360381019061012991906107f6565b6103ea565b60405161013b919061083b565b60405180910390f35b61014c610407565b60405161015991906105bb565b60405180910390f35b61016a61040d565b6040516101779190610863565b60405180910390f35b610188610430565b6040516101959190610863565b60405180910390f35b6101a6610455565b6040516101b39190610894565b60405180910390f35b6101c461045b565b005b60015481565b7f000000000000000000000000000000000000000000000000000000000000000073ffffffffffffffffffffffffffffffffffffffff163373ffffffffffffffffffffffffffffffffffffffff161461025a576040517f08c379a000000000000000000000000000000000000000000000000000000000815260040161025190610907565b60405180910390fd5b60055f8481526020019081526020015f205f9054906101000a900460ff166102b7576040517f08c379a00000000000000000000000000000000000000000000000000000000081526004016102ae9061096f565b60405180910390fd5b5f60055f8581526020019081526020015f205f6101000a81548160ff02191690831515021790555081818101906102ee91906109b7565b600481905550827f1ca47bacd454c26163f84eff4aa514e291ba9fa67ad6029e39567c122bbed30f6004546040516103269190610894565b60405180910390a2505050565b835f806101000a81548173ffffffffffffffffffffffffffffffffffffffff021916908373ffffffffffffffffffffffffffffffffffffffff16021790555082600181905550816002819055508060035f6101000a81548173ffffffffffffffffffffffffffffffffffffffff021916908373ffffffffffffffffffffffffffffffffffffffff16021790555050505050565b7f000000000000000000000000000000000000000000000000000000000000000081565b6005602052805f5260405f205f915054906101000a900460ff1681565b60025481565b5f8054906101000a900473ffffffffffffffffffffffffffffffffffffffff1681565b60035f9054906101000a900473ffffffffffffffffffffffffffffffffffffffff1681565b60045481565b5f7f000000000000000000000000000000000000000000000000000000000000000073ffffffffffffffffffffffffffffffffffffffff16636e6be03f5f8054906101000a900473ffffffffffffffffffffffffffffffffffffffff166001543060035f9054906101000a900473ffffffffffffffffffffffffffffffffffffffff1630633718d90a60e01b6040518763ffffffff1660e01b815260040161050896959493929190610a4f565b6020604051808303815f875af1158015610524573d5f803e3d5ffd5b505050506040513d601f19601f820116820180604052508101906105489190610ad5565b9050600160055f8381526020019081526020015f205f6101000a81548160ff021916908315150217905550807ff039428b095c79c12e434981caacc36fbc90eede12232a5fdc82b0beeddf3c2060405160405180910390a250565b5f819050919050565b6105b5816105a3565b82525050565b5f6020820190506105ce5f8301846105ac565b92915050565b5f80fd5b5f80fd5b6105e5816105a3565b81146105ef575f80fd5b50565b5f81359050610600816105dc565b92915050565b5f80fd5b5f80fd5b5f80fd5b5f8083601f84011261062757610626610606565b5b8235905067ffffffffffffffff8111156106445761064361060a565b5b6020830191508360018202830111156106605761065f61060e565b5b9250929050565b5f805f6040848603121561067e5761067d6105d4565b5b5f61068b868287016105f2565b935050602084013567ffffffffffffffff8111156106ac576106ab6105d8565b5b6106b886828701610612565b92509250509250925092565b5f73ffffffffffffffffffffffffffffffffffffffff82169050919050565b5f6106ed826106c4565b9050919050565b6106fd816106e3565b8114610707575f80fd5b50565b5f81359050610718816106f4565b92915050565b5f805f8060808587031215610736576107356105d4565b5b5f6107438782880161070a565b9450506020610754878288016105f2565b9350506040610765878288016105f2565b92505060606107768782880161070a565b91505092959194509250565b5f819050919050565b5f6107a56107a061079b846106c4565b610782565b6106c4565b9050919050565b5f6107b68261078b565b9050919050565b5f6107c7826107ac565b9050919050565b6107d7816107bd565b82525050565b5f6020820190506107f05f8301846107ce565b92915050565b5f6020828403121561080b5761080a6105d4565b5b5f610818848285016105f2565b91505092915050565b5f8115159050919050565b61083581610821565b82525050565b5f60208201905061084e5f83018461082c565b92915050565b61085d816106e3565b82525050565b5f6020820190506108765f830184610854565b92915050565b5f819050919050565b61088e8161087c565b82525050565b5f6020820190506108a75f830184610885565b92915050565b5f82825260208201905092915050565b7f43616c6c6572206e6f74204169726e6f646520525250000000000000000000005f82015250565b5f6108f16016836108ad565b91506108fc826108bd565b602082019050919050565b5f6020820190508181035f83015261091e816108e5565b9050919050565b7f5265717565737420696420756e6b6e6f776e00000000000000000000000000005f82015250565b5f6109596012836108ad565b915061096482610925565b602082019050919050565b5f6020820190508181035f8301526109868161094d565b9050919050565b6109968161087c565b81146109a0575f80fd5b50565b5f813590506109b18161098d565b92915050565b5f602082840312156109cc576109cb6105d4565b5b5f6109d9848285016109a3565b91505092915050565b5f7fffffffff0000000000000000000000000000000000000000000000000000000082169050919050565b610a16816109e2565b82525050565b5f82825260208201905092915050565b50565b5f610a3a5f83610a1c565b9150610a4582610a2c565b5f82019050919050565b5f60e082019050610a625f830189610854565b610a6f60208301886105ac565b610a7c6040830187610854565b610a896060830186610854565b610a966080830185610854565b610aa360a0830184610a0d565b81810360c0830152610ab481610a2f565b9050979650505050505050565b5f81519050610acf816105dc565b92915050565b5f60208284031215610aea57610ae96105d4565b5b5f610af784828501610ac1565b9150509291505056fea2646970667358221220190ebe1f422c80427fc88dfd6328349b96af2aafef86285109f75398ba71f24d64736f6c63430008160033",
					"opcodes": "PUSH1 0xA0 PUSH1 0x40 MSTORE CALLVALUE DUP1 ISZERO PUSH3 0x10 JUMPI PUSH0 DUP1 REVERT JUMPDEST POP PUSH1 0x40 MLOAD PUSH3 0xD2A CODESIZE SUB DUP1 PUSH3 0xD2A DUP4 CODECOPY DUP2 DUP2 ADD PUSH1 0x40 MSTORE DUP2 ADD SWAP1 PUSH3 0x36 SWAP2 SWAP1 PUSH3 0x145 JUMP JUMPDEST DUP1 DUP1 PUSH20 0xFFFFFFFFFFFFFFFFFFFFFFFFFFFFFFFFFFFFFFFF AND PUSH1 0x80 DUP2 PUSH20 0xFFFFFFFFFFFFFFFFFFFFFFFFFFFFFFFFFFFFFFFF AND DUP2 MSTORE POP POP DUP1 PUSH20 0xFFFFFFFFFFFFFFFFFFFFFFFFFFFFFFFFFFFFFFFF AND PUSH4 0xADDF027C ADDRESS PUSH1 0x1 PUSH1 0x40 MLOAD DUP4 PUSH4 0xFFFFFFFF AND PUSH1 0xE0 SHL DUP2 MSTORE PUSH1 0x4 ADD PUSH3 0xA9 SWAP3 SWAP2 SWAP1 PUSH3 0x1A2 JUMP JUMPDEST PUSH0 PUSH1 0x40 MLOAD DUP1 DUP4 SUB DUP2 PUSH0 DUP8 DUP1 EXTCODESIZE ISZERO DUP1 ISZERO PUSH3 0xC1 JUMPI PUSH0 DUP1 REVERT JUMPDEST POP GAS CALL ISZERO DUP1 ISZERO PUSH3 0xD4 JUMPI RETURNDATASIZE PUSH0 DUP1 RETURNDATACOPY RETURNDATASIZE PUSH0 REVERT JUMPDEST POP POP POP POP POP POP PUSH3 0x1CD JUMP JUMPDEST PUSH0 DUP1 REVERT JUMPDEST PUSH0 PUSH20 0xFFFFFFFFFFFFFFFFFFFFFFFFFFFFFFFFFFFFFFFF DUP3 AND SWAP1 POP SWAP2 SWAP1 POP JUMP JUMPDEST PUSH0 PUSH3 0x10F DUP3 PUSH3 0xE4 JUMP JUMPDEST SWAP1 POP SWAP2 SWAP1 POP JUMP JUMPDEST PUSH3 0x121 DUP2 PUSH3 0x103 JUMP JUMPDEST DUP2 EQ PUSH3 0x12C JUMPI PUSH0 DUP1 REVERT JUMPDEST POP JUMP JUMPDEST PUSH0 DUP2 MLOAD SWAP1 POP PUSH3 0x13F DUP2 PUSH3 0x116 JUMP JUMPDEST SWAP3 SWAP2 POP POP JUMP JUMPDEST PUSH0 PUSH1 0x20 DUP3 DUP5 SUB SLT ISZERO PUSH3 0x15D JUMPI PUSH3 0x15C PUSH3 0xE0 JUMP JUMPDEST JUMPDEST PUSH0 PUSH3 0x16C DUP5 DUP3 DUP6 ADD PUSH3 0x12F JUMP JUMPDEST SWAP2 POP POP SWAP3 SWAP2 POP POP JUMP JUMPDEST PUSH3 0x180 DUP2 PUSH3 0x103 JUMP JUMPDEST DUP3 MSTORE POP POP JUMP JUMPDEST PUSH0 DUP2 ISZERO ISZERO SWAP1 POP SWAP2 SWAP1 POP JUMP JUMPDEST PUSH3 0x19C DUP2 PUSH3 0x186 JUMP JUMPDEST DUP3 MSTORE POP POP JUMP JUMPDEST PUSH0 PUSH1 0x40 DUP3 ADD SWAP1 POP PUSH3 0x1B7 PUSH0 DUP4 ADD DUP6 PUSH3 0x175 JUMP JUMPDEST PUSH3 0x1C6 PUSH1 0x20 DUP4 ADD DUP5 PUSH3 0x191 JUMP JUMPDEST SWAP4 SWAP3 POP POP POP JUMP JUMPDEST PUSH1 0x80 MLOAD PUSH2 0xB36 PUSH3 0x1F4 PUSH0 CODECOPY PUSH0 DUP2 DUP2 PUSH2 0x1CE ADD MSTORE DUP2 DUP2 PUSH2 0x3C8 ADD MSTORE PUSH2 0x45E ADD MSTORE PUSH2 0xB36 PUSH0 RETURN INVALID PUSH1 0x80 PUSH1 0x40 MSTORE CALLVALUE DUP1 ISZERO PUSH2 0xF JUMPI PUSH0 DUP1 REVERT JUMPDEST POP PUSH1 0x4 CALLDATASIZE LT PUSH2 0x9C JUMPI PUSH0 CALLDATALOAD PUSH1 0xE0 SHR DUP1 PUSH4 0xA19954AF GT PUSH2 0x64 JUMPI DUP1 PUSH4 0xA19954AF EQ PUSH2 0x144 JUMPI DUP1 PUSH4 0xA36FF4D8 EQ PUSH2 0x162 JUMPI DUP1 PUSH4 0xBF90FB4E EQ PUSH2 0x180 JUMPI DUP1 PUSH4 0xCE26DA8B EQ PUSH2 0x19E JUMPI DUP1 PUSH4 0xDEA12BAD EQ PUSH2 0x1BC JUMPI PUSH2 0x9C JUMP JUMPDEST DUP1 PUSH4 0x7B9FC57 EQ PUSH2 0xA0 JUMPI DUP1 PUSH4 0x3718D90A EQ PUSH2 0xBE JUMPI DUP1 PUSH4 0x5675E4E4 EQ PUSH2 0xDA JUMPI DUP1 PUSH4 0x71BAB666 EQ PUSH2 0xF6 JUMPI DUP1 PUSH4 0x851244F7 EQ PUSH2 0x114 JUMPI JUMPDEST PUSH0 DUP1 REVERT JUMPDEST PUSH2 0xA8 PUSH2 0x1C6 JUMP JUMPDEST PUSH1 0x40 MLOAD PUSH2 0xB5 SWAP2 SWAP1 PUSH2 0x5BB JUMP JUMPDEST PUSH1 0x40 MLOAD DUP1 SWAP2 SUB SWAP1 RETURN JUMPDEST PUSH2 0xD8 PUSH1 0x4 DUP1 CALLDATASIZE SUB DUP2 ADD SWAP1 PUSH2 0xD3 SWAP2 SWAP1 PUSH2 0x667 JUMP JUMPDEST PUSH2 0x1CC JUMP JUMPDEST STOP JUMPDEST PUSH2 0xF4 PUSH1 0x4 DUP1 CALLDATASIZE SUB DUP2 ADD SWAP1 PUSH2 0xEF SWAP2 SWAP1 PUSH2 0x71E JUMP JUMPDEST PUSH2 0x333 JUMP JUMPDEST STOP JUMPDEST PUSH2 0xFE PUSH2 0x3C6 JUMP JUMPDEST PUSH1 0x40 MLOAD PUSH2 0x10B SWAP2 SWAP1 PUSH2 0x7DD JUMP JUMPDEST PUSH1 0x40 MLOAD DUP1 SWAP2 SUB SWAP1 RETURN JUMPDEST PUSH2 0x12E PUSH1 0x4 DUP1 CALLDATASIZE SUB DUP2 ADD SWAP1 PUSH2 0x129 SWAP2 SWAP1 PUSH2 0x7F6 JUMP JUMPDEST PUSH2 0x3EA JUMP JUMPDEST PUSH1 0x40 MLOAD PUSH2 0x13B SWAP2 SWAP1 PUSH2 0x83B JUMP JUMPDEST PUSH1 0x40 MLOAD DUP1 SWAP2 SUB SWAP1 RETURN JUMPDEST PUSH2 0x14C PUSH2 0x407 JUMP JUMPDEST PUSH1 0x40 MLOAD PUSH2 0x159 SWAP2 SWAP1 PUSH2 0x5BB JUMP JUMPDEST PUSH1 0x40 MLOAD DUP1 SWAP2 SUB SWAP1 RETURN JUMPDEST PUSH2 0x16A PUSH2 0x40D JUMP JUMPDEST PUSH1 0x40 MLOAD PUSH2 0x177 SWAP2 SWAP1 PUSH2 0x863 JUMP JUMPDEST PUSH1 0x40 MLOAD DUP1 SWAP2 SUB SWAP1 RETURN JUMPDEST PUSH2 0x188 PUSH2 0x430 JUMP JUMPDEST PUSH1 0x40 MLOAD PUSH2 0x195 SWAP2 SWAP1 PUSH2 0x863 JUMP JUMPDEST PUSH1 0x40 MLOAD DUP1 SWAP2 SUB SWAP1 RETURN JUMPDEST PUSH2 0x1A6 PUSH2 0x455 JUMP JUMPDEST PUSH1 0x40 MLOAD PUSH2 0x1B3 SWAP2 SWAP1 PUSH2 0x894 JUMP JUMPDEST PUSH1 0x40 MLOAD DUP1 SWAP2 SUB SWAP1 RETURN JUMPDEST PUSH2 0x1C4 PUSH2 0x45B JUMP JUMPDEST STOP JUMPDEST PUSH1 0x1 SLOAD DUP2 JUMP JUMPDEST PUSH32 0x0 PUSH20 0xFFFFFFFFFFFFFFFFFFFFFFFFFFFFFFFFFFFFFFFF AND CALLER PUSH20 0xFFFFFFFFFFFFFFFFFFFFFFFFFFFFFFFFFFFFFFFF AND EQ PUSH2 0x25A JUMPI PUSH1 0x40 MLOAD PUSH32 0x8C379A000000000000000000000000000000000000000000000000000000000 DUP2 MSTORE PUSH1 0x4 ADD PUSH2 0x251 SWAP1 PUSH2 0x907 JUMP JUMPDEST PUSH1 0x40 MLOAD DUP1 SWAP2 SUB SWAP1 REVERT JUMPDEST PUSH1 0x5 PUSH0 DUP5 DUP2 MSTORE PUSH1 0x20 ADD SWAP1 DUP2 MSTORE PUSH1 0x20 ADD PUSH0 KECCAK256 PUSH0 SWAP1 SLOAD SWAP1 PUSH2 0x100 EXP SWAP1 DIV PUSH1 0xFF AND PUSH2 0x2B7 JUMPI PUSH1 0x40 MLOAD PUSH32 0x8C379A000000000000000000000000000000000000000000000000000000000 DUP2 MSTORE PUSH1 0x4 ADD PUSH2 0x2AE SWAP1 PUSH2 0x96F JUMP JUMPDEST PUSH1 0x40 MLOAD DUP1 SWAP2 SUB SWAP1 REVERT JUMPDEST PUSH0 PUSH1 0x5 PUSH0 DUP6 DUP2 MSTORE PUSH1 0x20 ADD SWAP1 DUP2 MSTORE PUSH1 0x20 ADD PUSH0 KECCAK256 PUSH0 PUSH2 0x100 EXP DUP2 SLOAD DUP2 PUSH1 0xFF MUL NOT AND SWAP1 DUP4 ISZERO ISZERO MUL OR SWAP1 SSTORE POP DUP2 DUP2 DUP2 ADD SWAP1 PUSH2 0x2EE SWAP2 SWAP1 PUSH2 0x9B7 JUMP JUMPDEST PUSH1 0x4 DUP2 SWAP1 SSTORE POP DUP3 PUSH32 0x1CA47BACD454C26163F84EFF4AA514E291BA9FA67AD6029E39567C122BBED30F PUSH1 0x4 SLOAD PUSH1 0x40 MLOAD PUSH2 0x326 SWAP2 SWAP1 PUSH2 0x894 JUMP JUMPDEST PUSH1 0x40 MLOAD DUP1 SWAP2 SUB SWAP1 LOG2 POP POP POP JUMP JUMPDEST DUP4 PUSH0 DUP1 PUSH2 0x100 EXP DUP2 SLOAD DUP2 PUSH20 0xFFFFFFFFFFFFFFFFFFFFFFFFFFFFFFFFFFFFFFFF MUL NOT AND SWAP1 DUP4 PUSH20 0xFFFFFFFFFFFFFFFFFFFFFFFFFFFFFFFFFFFFFFFF AND MUL OR SWAP1 SSTORE POP DUP3 PUSH1 0x1 DUP2 SWAP1 SSTORE POP DUP2 PUSH1 0x2 DUP2 SWAP1 SSTORE POP DUP1 PUSH1 0x3 PUSH0 PUSH2 0x100 EXP DUP2 SLOAD DUP2 PUSH20 0xFFFFFFFFFFFFFFFFFFFFFFFFFFFFFFFFFFFFFFFF MUL NOT AND SWAP1 DUP4 PUSH20 0xFFFFFFFFFFFFFFFFFFFFFFFFFFFFFFFFFFFFFFFF AND MUL OR SWAP1 SSTORE POP POP POP POP POP JUMP JUMPDEST PUSH32 0x0 DUP2 JUMP JUMPDEST PUSH1 0x5 PUSH1 0x20 MSTORE DUP1 PUSH0 MSTORE PUSH1 0x40 PUSH0 KECCAK256 PUSH0 SWAP2 POP SLOAD SWAP1 PUSH2 0x100 EXP SWAP1 DIV PUSH1 0xFF AND DUP2 JUMP JUMPDEST PUSH1 0x2 SLOAD DUP2 JUMP JUMPDEST PUSH0 DUP1 SLOAD SWAP1 PUSH2 0x100 EXP SWAP1 DIV PUSH20 0xFFFFFFFFFFFFFFFFFFFFFFFFFFFFFFFFFFFFFFFF AND DUP2 JUMP JUMPDEST PUSH1 0x3 PUSH0 SWAP1 SLOAD SWAP1 PUSH2 0x100 EXP SWAP1 DIV PUSH20 0xFFFFFFFFFFFFFFFFFFFFFFFFFFFFFFFFFFFFFFFF AND DUP2 JUMP JUMPDEST PUSH1 0x4 SLOAD DUP2 JUMP JUMPDEST PUSH0 PUSH32 0x0 PUSH20 0xFFFFFFFFFFFFFFFFFFFFFFFFFFFFFFFFFFFFFFFF AND PUSH4 0x6E6BE03F PUSH0 DUP1 SLOAD SWAP1 PUSH2 0x100 EXP SWAP1 DIV PUSH20 0xFFFFFFFFFFFFFFFFFFFFFFFFFFFFFFFFFFFFFFFF AND PUSH1 0x1 SLOAD ADDRESS PUSH1 0x3 PUSH0 SWAP1 SLOAD SWAP1 PUSH2 0x100 EXP SWAP1 DIV PUSH20 0xFFFFFFFFFFFFFFFFFFFFFFFFFFFFFFFFFFFFFFFF AND ADDRESS PUSH4 0x3718D90A PUSH1 0xE0 SHL PUSH1 0x40 MLOAD DUP8 PUSH4 0xFFFFFFFF AND PUSH1 0xE0 SHL DUP2 MSTORE PUSH1 0x4 ADD PUSH2 0x508 SWAP7 SWAP6 SWAP5 SWAP4 SWAP3 SWAP2 SWAP1 PUSH2 0xA4F JUMP JUMPDEST PUSH1 0x20 PUSH1 0x40 MLOAD DUP1 DUP4 SUB DUP2 PUSH0 DUP8 GAS CALL ISZERO DUP1 ISZERO PUSH2 0x524 JUMPI RETURNDATASIZE PUSH0 DUP1 RETURNDATACOPY RETURNDATASIZE PUSH0 REVERT JUMPDEST POP POP POP POP PUSH1 0x40 MLOAD RETURNDATASIZE PUSH1 0x1F NOT PUSH1 0x1F DUP3 ADD AND DUP3 ADD DUP1 PUSH1 0x40 MSTORE POP DUP2 ADD SWAP1 PUSH2 0x548 SWAP2 SWAP1 PUSH2 0xAD5 JUMP JUMPDEST SWAP1 POP PUSH1 0x1 PUSH1 0x5 PUSH0 DUP4 DUP2 MSTORE PUSH1 0x20 ADD SWAP1 DUP2 MSTORE PUSH1 0x20 ADD PUSH0 KECCAK256 PUSH0 PUSH2 0x100 EXP DUP2 SLOAD DUP2 PUSH1 0xFF MUL NOT AND SWAP1 DUP4 ISZERO ISZERO MUL OR SWAP1 SSTORE POP DUP1 PUSH32 0xF039428B095C79C12E434981CAACC36FBC90EEDE12232A5FDC82B0BEEDDF3C20 PUSH1 0x40 MLOAD PUSH1 0x40 MLOAD DUP1 SWAP2 SUB SWAP1 LOG2 POP JUMP JUMPDEST PUSH0 DUP2 SWAP1 POP SWAP2 SWAP1 POP JUMP JUMPDEST PUSH2 0x5B5 DUP2 PUSH2 0x5A3 JUMP JUMPDEST DUP3 MSTORE POP POP JUMP JUMPDEST PUSH0 PUSH1 0x20 DUP3 ADD SWAP1 POP PUSH2 0x5CE PUSH0 DUP4 ADD DUP5 PUSH2 0x5AC JUMP JUMPDEST SWAP3 SWAP2 POP POP JUMP JUMPDEST PUSH0 DUP1 REVERT JUMPDEST PUSH0 DUP1 REVERT JUMPDEST PUSH2 0x5E5 DUP2 PUSH2 0x5A3 JUMP JUMPDEST DUP2 EQ PUSH2 0x5EF JUMPI PUSH0 DUP1 REVERT JUMPDEST POP JUMP JUMPDEST PUSH0 DUP2 CALLDATALOAD SWAP1 POP PUSH2 0x600 DUP2 PUSH2 0x5DC JUMP JUMPDEST SWAP3 SWAP2 POP POP JUMP JUMPDEST PUSH0 DUP1 REVERT JUMPDEST PUSH0 DUP1 REVERT JUMPDEST PUSH0 DUP1 REVERT JUMPDEST PUSH0 DUP1 DUP4 PUSH1 0x1F DUP5 ADD SLT PUSH2 0x627 JUMPI PUSH2 0x626 PUSH2 0x606 JUMP JUMPDEST JUMPDEST DUP3 CALLDATALOAD SWAP1 POP PUSH8 0xFFFFFFFFFFFFFFFF DUP2 GT ISZERO PUSH2 0x644 JUMPI PUSH2 0x643 PUSH2 0x60A JUMP JUMPDEST JUMPDEST PUSH1 0x20 DUP4 ADD SWAP2 POP DUP4 PUSH1 0x1 DUP3 MUL DUP4 ADD GT ISZERO PUSH2 0x660 JUMPI PUSH2 0x65F PUSH2 0x60E JUMP JUMPDEST JUMPDEST SWAP3 POP SWAP3 SWAP1 POP JUMP JUMPDEST PUSH0 DUP1 PUSH0 PUSH1 0x40 DUP5 DUP7 SUB SLT ISZERO PUSH2 0x67E JUMPI PUSH2 0x67D PUSH2 0x5D4 JUMP JUMPDEST JUMPDEST PUSH0 PUSH2 0x68B DUP7 DUP3 DUP8 ADD PUSH2 0x5F2 JUMP JUMPDEST SWAP4 POP POP PUSH1 0x20 DUP5 ADD CALLDATALOAD PUSH8 0xFFFFFFFFFFFFFFFF DUP2 GT ISZERO PUSH2 0x6AC JUMPI PUSH2 0x6AB PUSH2 0x5D8 JUMP JUMPDEST JUMPDEST PUSH2 0x6B8 DUP7 DUP3 DUP8 ADD PUSH2 0x612 JUMP JUMPDEST SWAP3 POP SWAP3 POP POP SWAP3 POP SWAP3 POP SWAP3 JUMP JUMPDEST PUSH0 PUSH20 0xFFFFFFFFFFFFFFFFFFFFFFFFFFFFFFFFFFFFFFFF DUP3 AND SWAP1 POP SWAP2 SWAP1 POP JUMP JUMPDEST PUSH0 PUSH2 0x6ED DUP3 PUSH2 0x6C4 JUMP JUMPDEST SWAP1 POP SWAP2 SWAP1 POP JUMP JUMPDEST PUSH2 0x6FD DUP2 PUSH2 0x6E3 JUMP JUMPDEST DUP2 EQ PUSH2 0x707 JUMPI PUSH0 DUP1 REVERT JUMPDEST POP JUMP JUMPDEST PUSH0 DUP2 CALLDATALOAD SWAP1 POP PUSH2 0x718 DUP2 PUSH2 0x6F4 JUMP JUMPDEST SWAP3 SWAP2 POP POP JUMP JUMPDEST PUSH0 DUP1 PUSH0 DUP1 PUSH1 0x80 DUP6 DUP8 SUB SLT ISZERO PUSH2 0x736 JUMPI PUSH2 0x735 PUSH2 0x5D4 JUMP JUMPDEST JUMPDEST PUSH0 PUSH2 0x743 DUP8 DUP3 DUP9 ADD PUSH2 0x70A JUMP JUMPDEST SWAP5 POP POP PUSH1 0x20 PUSH2 0x754 DUP8 DUP3 DUP9 ADD PUSH2 0x5F2 JUMP JUMPDEST SWAP4 POP POP PUSH1 0x40 PUSH2 0x765 DUP8 DUP3 DUP9 ADD PUSH2 0x5F2 JUMP JUMPDEST SWAP3 POP POP PUSH1 0x60 PUSH2 0x776 DUP8 DUP3 DUP9 ADD PUSH2 0x70A JUMP JUMPDEST SWAP2 POP POP SWAP3 SWAP6 SWAP2 SWAP5 POP SWAP3 POP JUMP JUMPDEST PUSH0 DUP2 SWAP1 POP SWAP2 SWAP1 POP JUMP JUMPDEST PUSH0 PUSH2 0x7A5 PUSH2 0x7A0 PUSH2 0x79B DUP5 PUSH2 0x6C4 JUMP JUMPDEST PUSH2 0x782 JUMP JUMPDEST PUSH2 0x6C4 JUMP JUMPDEST SWAP1 POP SWAP2 SWAP1 POP JUMP JUMPDEST PUSH0 PUSH2 0x7B6 DUP3 PUSH2 0x78B JUMP JUMPDEST SWAP1 POP SWAP2 SWAP1 POP JUMP JUMPDEST PUSH0 PUSH2 0x7C7 DUP3 PUSH2 0x7AC JUMP JUMPDEST SWAP1 POP SWAP2 SWAP1 POP JUMP JUMPDEST PUSH2 0x7D7 DUP2 PUSH2 0x7BD JUMP JUMPDEST DUP3 MSTORE POP POP JUMP JUMPDEST PUSH0 PUSH1 0x20 DUP3 ADD SWAP1 POP PUSH2 0x7F0 PUSH0 DUP4 ADD DUP5 PUSH2 0x7CE JUMP JUMPDEST SWAP3 SWAP2 POP POP JUMP JUMPDEST PUSH0 PUSH1 0x20 DUP3 DUP5 SUB SLT ISZERO PUSH2 0x80B JUMPI PUSH2 0x80A PUSH2 0x5D4 JUMP JUMPDEST JUMPDEST PUSH0 PUSH2 0x818 DUP5 DUP3 DUP6 ADD PUSH2 0x5F2 JUMP JUMPDEST SWAP2 POP POP SWAP3 SWAP2 POP POP JUMP JUMPDEST PUSH0 DUP2 ISZERO ISZERO SWAP1 POP SWAP2 SWAP1 POP JUMP JUMPDEST PUSH2 0x835 DUP2 PUSH2 0x821 JUMP JUMPDEST DUP3 MSTORE POP POP JUMP JUMPDEST PUSH0 PUSH1 0x20 DUP3 ADD SWAP1 POP PUSH2 0x84E PUSH0 DUP4 ADD DUP5 PUSH2 0x82C JUMP JUMPDEST SWAP3 SWAP2 POP POP JUMP JUMPDEST PUSH2 0x85D DUP2 PUSH2 0x6E3 JUMP JUMPDEST DUP3 MSTORE POP POP JUMP JUMPDEST PUSH0 PUSH1 0x20 DUP3 ADD SWAP1 POP PUSH2 0x876 PUSH0 DUP4 ADD DUP5 PUSH2 0x854 JUMP JUMPDEST SWAP3 SWAP2 POP POP JUMP JUMPDEST PUSH0 DUP2 SWAP1 POP SWAP2 SWAP1 POP JUMP JUMPDEST PUSH2 0x88E DUP2 PUSH2 0x87C JUMP JUMPDEST DUP3 MSTORE POP POP JUMP JUMPDEST PUSH0 PUSH1 0x20 DUP3 ADD SWAP1 POP PUSH2 0x8A7 PUSH0 DUP4 ADD DUP5 PUSH2 0x885 JUMP JUMPDEST SWAP3 SWAP2 POP POP JUMP JUMPDEST PUSH0 DUP3 DUP3 MSTORE PUSH1 0x20 DUP3 ADD SWAP1 POP SWAP3 SWAP2 POP POP JUMP JUMPDEST PUSH32 0x43616C6C6572206E6F74204169726E6F64652052525000000000000000000000 PUSH0 DUP3 ADD MSTORE POP JUMP JUMPDEST PUSH0 PUSH2 0x8F1 PUSH1 0x16 DUP4 PUSH2 0x8AD JUMP JUMPDEST SWAP2 POP PUSH2 0x8FC DUP3 PUSH2 0x8BD JUMP JUMPDEST PUSH1 0x20 DUP3 ADD SWAP1 POP SWAP2 SWAP1 POP JUMP JUMPDEST PUSH0 PUSH1 0x20 DUP3 ADD SWAP1 POP DUP2 DUP2 SUB PUSH0 DUP4 ADD MSTORE PUSH2 0x91E DUP2 PUSH2 0x8E5 JUMP JUMPDEST SWAP1 POP SWAP2 SWAP1 POP JUMP JUMPDEST PUSH32 0x5265717565737420696420756E6B6E6F776E0000000000000000000000000000 PUSH0 DUP3 ADD MSTORE POP JUMP JUMPDEST PUSH0 PUSH2 0x959 PUSH1 0x12 DUP4 PUSH2 0x8AD JUMP JUMPDEST SWAP2 POP PUSH2 0x964 DUP3 PUSH2 0x925 JUMP JUMPDEST PUSH1 0x20 DUP3 ADD SWAP1 POP SWAP2 SWAP1 POP JUMP JUMPDEST PUSH0 PUSH1 0x20 DUP3 ADD SWAP1 POP DUP2 DUP2 SUB PUSH0 DUP4 ADD MSTORE PUSH2 0x986 DUP2 PUSH2 0x94D JUMP JUMPDEST SWAP1 POP SWAP2 SWAP1 POP JUMP JUMPDEST PUSH2 0x996 DUP2 PUSH2 0x87C JUMP JUMPDEST DUP2 EQ PUSH2 0x9A0 JUMPI PUSH0 DUP1 REVERT JUMPDEST POP JUMP JUMPDEST PUSH0 DUP2 CALLDATALOAD SWAP1 POP PUSH2 0x9B1 DUP2 PUSH2 0x98D JUMP JUMPDEST SWAP3 SWAP2 POP POP JUMP JUMPDEST PUSH0 PUSH1 0x20 DUP3 DUP5 SUB SLT ISZERO PUSH2 0x9CC JUMPI PUSH2 0x9CB PUSH2 0x5D4 JUMP JUMPDEST JUMPDEST PUSH0 PUSH2 0x9D9 DUP5 DUP3 DUP6 ADD PUSH2 0x9A3 JUMP JUMPDEST SWAP2 POP POP SWAP3 SWAP2 POP POP JUMP JUMPDEST PUSH0 PUSH32 0xFFFFFFFF00000000000000000000000000000000000000000000000000000000 DUP3 AND SWAP1 POP SWAP2 SWAP1 POP JUMP JUMPDEST PUSH2 0xA16 DUP2 PUSH2 0x9E2 JUMP JUMPDEST DUP3 MSTORE POP POP JUMP JUMPDEST PUSH0 DUP3 DUP3 MSTORE PUSH1 0x20 DUP3 ADD SWAP1 POP SWAP3 SWAP2 POP POP JUMP JUMPDEST POP JUMP JUMPDEST PUSH0 PUSH2 0xA3A PUSH0 DUP4 PUSH2 0xA1C JUMP JUMPDEST SWAP2 POP PUSH2 0xA45 DUP3 PUSH2 0xA2C JUMP JUMPDEST PUSH0 DUP3 ADD SWAP1 POP SWAP2 SWAP1 POP JUMP JUMPDEST PUSH0 PUSH1 0xE0 DUP3 ADD SWAP1 POP PUSH2 0xA62 PUSH0 DUP4 ADD DUP10 PUSH2 0x854 JUMP JUMPDEST PUSH2 0xA6F PUSH1 0x20 DUP4 ADD DUP9 PUSH2 0x5AC JUMP JUMPDEST PUSH2 0xA7C PUSH1 0x40 DUP4 ADD DUP8 PUSH2 0x854 JUMP JUMPDEST PUSH2 0xA89 PUSH1 0x60 DUP4 ADD DUP7 PUSH2 0x854 JUMP JUMPDEST PUSH2 0xA96 PUSH1 0x80 DUP4 ADD DUP6 PUSH2 0x854 JUMP JUMPDEST PUSH2 0xAA3 PUSH1 0xA0 DUP4 ADD DUP5 PUSH2 0xA0D JUMP JUMPDEST DUP2 DUP2 SUB PUSH1 0xC0 DUP4 ADD MSTORE PUSH2 0xAB4 DUP2 PUSH2 0xA2F JUMP JUMPDEST SWAP1 POP SWAP8 SWAP7 POP POP POP POP POP POP POP JUMP JUMPDEST PUSH0 DUP2 MLOAD SWAP1 POP PUSH2 0xACF DUP2 PUSH2 0x5DC JUMP JUMPDEST SWAP3 SWAP2 POP POP JUMP JUMPDEST PUSH0 PUSH1 0x20 DUP3 DUP5 SUB SLT ISZERO PUSH2 0xAEA JUMPI PUSH2 0xAE9 PUSH2 0x5D4 JUMP JUMPDEST JUMPDEST PUSH0 PUSH2 0xAF7 DUP5 DUP3 DUP6 ADD PUSH2 0xAC1 JUMP JUMPDEST SWAP2 POP POP SWAP3 SWAP2 POP POP JUMP INVALID LOG2 PUSH5 0x6970667358 0x22 SLT KECCAK256 NOT 0xE 0xBE 0x1F TIMESTAMP 0x2C DUP1 TIMESTAMP PUSH32 0xC88DFD6328349B96AF2AAFEF86285109F75398BA71F24D64736F6C6343000816 STOP CALLER "
				},
				"gasEstimates": {
					"creation": {
						"codeDepositCost": "574000",
						"executionCost": "infinite",
						"totalCost": "infinite"
					},
					"external": {
						"airnode()": "2527",
						"airnodeRrp()": "infinite",
						"endpointIdUint256()": "2426",
						"endpointIdUint256Array()": "2425",
						"expectingRequestWithIdToBeFulfilled(bytes32)": "2874",
						"fulfillUint256(bytes32,bytes)": "infinite",
						"makeRequestUint256()": "infinite",
						"qrngUint256()": "2491",
						"setRequestParameters(address,bytes32,bytes32,address)": "infinite",
						"sponsorWallet()": "2552"
					}
				},
				"methodIdentifiers": {
					"airnode()": "a36ff4d8",
					"airnodeRrp()": "71bab666",
					"endpointIdUint256()": "07b9fc57",
					"endpointIdUint256Array()": "a19954af",
					"expectingRequestWithIdToBeFulfilled(bytes32)": "851244f7",
					"fulfillUint256(bytes32,bytes)": "3718d90a",
					"makeRequestUint256()": "dea12bad",
					"qrngUint256()": "ce26da8b",
					"setRequestParameters(address,bytes32,bytes32,address)": "5675e4e4",
					"sponsorWallet()": "bf90fb4e"
				}
			},
			"storageLayout": {
				"storage": [
					{
						"astId": 378,
						"contract": "contracts/QRNG.sol:randomNumberGenerator",
						"label": "airnode",
						"offset": 0,
						"slot": "0",
						"type": "t_address"
					},
					{
						"astId": 380,
						"contract": "contracts/QRNG.sol:randomNumberGenerator",
						"label": "endpointIdUint256",
						"offset": 0,
						"slot": "1",
						"type": "t_bytes32"
					},
					{
						"astId": 382,
						"contract": "contracts/QRNG.sol:randomNumberGenerator",
						"label": "endpointIdUint256Array",
						"offset": 0,
						"slot": "2",
						"type": "t_bytes32"
					},
					{
						"astId": 384,
						"contract": "contracts/QRNG.sol:randomNumberGenerator",
						"label": "sponsorWallet",
						"offset": 0,
						"slot": "3",
						"type": "t_address"
					},
					{
						"astId": 386,
						"contract": "contracts/QRNG.sol:randomNumberGenerator",
						"label": "qrngUint256",
						"offset": 0,
						"slot": "4",
						"type": "t_uint256"
					},
					{
						"astId": 390,
						"contract": "contracts/QRNG.sol:randomNumberGenerator",
						"label": "expectingRequestWithIdToBeFulfilled",
						"offset": 0,
						"slot": "5",
						"type": "t_mapping(t_bytes32,t_bool)"
					}
				],
				"types": {
					"t_address": {
						"encoding": "inplace",
						"label": "address",
						"numberOfBytes": "20"
					},
					"t_bool": {
						"encoding": "inplace",
						"label": "bool",
						"numberOfBytes": "1"
					},
					"t_bytes32": {
						"encoding": "inplace",
						"label": "bytes32",
						"numberOfBytes": "32"
					},
					"t_mapping(t_bytes32,t_bool)": {
						"encoding": "mapping",
						"key": "t_bytes32",
						"label": "mapping(bytes32 => bool)",
						"numberOfBytes": "32",
						"value": "t_bool"
					},
					"t_uint256": {
						"encoding": "inplace",
						"label": "uint256",
						"numberOfBytes": "32"
					}
				}
			},
			"userdoc": {
				"kind": "user",
				"methods": {},
				"version": 1
			}
		}
	}
}